:100000000C942A000C9447000C9447000C94470071
:100010000C9447000C9447000C9447000C94470044
:100020000C9447000C9447000C94650E0C94470008
:100030000C9447000C9447000C9447000C94470024
:100040000C9447000C9447000C9447000C94470014
:100050000C94470011241FBECFE5D8E0DEBFCDBF12
:1000600011E0A0E6B0E0E8EFFFE102C005900D92DC
:10007000AA36B107D9F711E0AAE6B1E001C01D9296
:10008000AE36B107E1F70E94E00C0C94FA0F0C9425
:100090000000EF92FF920F931F937B018C0120E0F1
:1000A00030E040E05FE40E94C50388238CF0C80183
:1000B000B70120E030E040E05FE40E94C1010E940F
:1000C000F5039B01AC01205030404040504806C031
:1000D000C801B7010E94F5039B01AC01B901CA0137
:1000E0001F910F91FF90EF900895A0E0B0E0EBE733
:1000F000F0E00C94C30FDC012B01FA019C919230CB
:1001000008F439C1EB018881823008F433C194309E
:1001100069F4843009F02FC111969C91119789815F
:10012000981709F428C1A0E6B0E025C1843009F48D
:1001300021C18230A9F4923009F01DC19A01AD01AC
:1001400088E0EA010990AE01E90109929E0181501F
:10015000C1F7E201898111969C918923818308C1AD
:10016000923009F407C112962D903C901397EB0141
:100170008A819B811496AD90BD90CD90DC901797AD
:10018000EC80FD800E811F819101281B390BB90184
:1001900037FF04C066277727621B730B6032710537
:1001A0000CF061C0121613066CF537014801062EDB
:1001B00004C096948794779467940A94D2F721E0C8
:1001C00030E040E050E004C0220F331F441F551FB1
:1001D0006A95D2F721503040404050402E213F21B7
:1001E00040235123211531054105510521F021E01E
:1001F00030E040E050E079018A01E628F72808293C
:1002000019293CC0232BD1F1260E371E350146019A
:10021000062E04C096948794779467940A94D2F734
:1002200021E030E040E050E004C0220F331F441FC3
:10023000551F6A95D2F721503040404050402A2146
:100240003B214C215D21211531054105510521F04E
:1002500021E030E040E050E059016A01A628B728CB
:10026000C828D9280BC0821593052CF01C01AA249C
:10027000BB24650103C0EE24FF24870111969C91E5
:10028000D20111968C91981709F445C0992339F041
:10029000A80197012A193B094C095D0906C0A6016E
:1002A00095012E193F09400B510B57FD08C01182D3
:1002B0003382228224833583468357831DC081E0A5
:1002C00081833382228288279927DC01821B930B4A
:1002D000A40BB50B84839583A683B7830DC0220F2F
:1002E000331F441F551F24833583468357838281E0
:1002F000938101979383828324813581468157813D
:10030000DA01C9010197A109B1098F5F9F4FAF4F72
:10031000BF4328F30BC0918333822282EA0CFB1C7B
:100320000C1D1D1DE482F5820683178383E0808304
:10033000248135814681578157FF1AC0C901AA27F8
:1003400097FDA095BA2F81709070A070B0705695EF
:10035000479537952795822B932BA42BB52B848318
:100360009583A683B7838281938101969383828349
:10037000DF0101C0D201CD01CDB7DEB7E2E10C94BF
:10038000DF0FA0E2B0E0E7ECF1E00C94CF0F69835F
:100390007A838B839C832D833E834F835887E9E048
:1003A000EE2EF12CEC0EFD1ECE010196B7010E943F
:1003B000E6058E010F5E1F4FCE010596B8010E9423
:1003C000E6058A8991E089278A8BC701B801AE01C9
:1003D000475E5F4F0E9475000E941105A096E6E0FF
:1003E0000C94EB0FA0E2B0E0E8EFF1E00C94CF0F3B
:1003F00069837A838B839C832D833E834F835887C5
:10040000F9E0EF2EF12CEC0EFD1ECE010196B701A6
:100410000E94E6058E010F5E1F4FCE010596B801C2
:100420000E94E605C701B801AE01475E5F4F0E941A
:1004300075000E941105A096E6E00C94EB0FA0E277
:10044000B0E0E5E2F2E00C94C30F69837A838B831A
:100450009C832D833E834F835887CE010196BE0136
:10046000675F7F4F0E94E605CE010596BE016F5E75
:100470007F4F0E94E6059985923088F08989823005
:10048000C8F0943019F4823051F404C0843029F457
:10049000923081F480E690E0C6C0923049F420E0CA
:1004A0009A858A89981321E02A87CE010996BBC0D4
:1004B000823049F420E09A858A89981321E02A8BBA
:1004C000CE014196B0C02D843E844F8458886D88FB
:1004D0007E888F88988CEE24FF248701AA24BB2471
:1004E000650140E050E060E070E0E0E0F0E0C10174
:1004F00081709070892BE9F0E60CF71C081D191D1E
:100500009A01AB012A0D3B1D4C1D5D1D80E090E062
:10051000A0E0B0E0E614F7040805190520F481E036
:1005200090E0A0E0B0E0BA01A901480F591F6A1F8E
:100530007B1FAA0CBB1CCC1CDD1C97FE08C081E0F5
:1005400090E0A0E0B0E0A82AB92ACA2ADB2A3196B6
:10055000E032F10549F0660C771C881C991C569412
:10056000479437942794C3CFFA85EA892B893C892D
:100570008B859C85280F391F2E5F3F4F17C0CA01FE
:1005800081709070892B61F016950795F794E79428
:1005900080E090E0A0E0B0E8E82AF92A0A2B1B2BC3
:1005A00076956795579547952F5F3F4F77FDE7CF36
:1005B0000CC0440F551F661F771F17FD4160EE0CDE
:1005C000FF1C001F111F21503040403090E05907A0
:1005D00090E0690790E4790760F32B8F3C8FDB0193
:1005E000CA018F779070A070B07080349105A1051A
:1005F000B10561F447FD0AC0E114F10401051105DC
:1006000029F0405C5F4F6F4F7F4F40781A8EFE1786
:1006100011F081E08A8F4D8F5E8F6F8F78A383E01A
:10062000898FCE0149960E941105A096E2E10C94B3
:10063000DF0FA8E1B0E0EFE1F3E00C94CB0F6983AA
:100640007A838B839C832D833E834F835887B9E0C5
:10065000EB2EF12CEC0EFD1ECE010196B7010E948F
:10066000E6058E010F5E1F4FCE010596B8010E9470
:10067000E6052985223008F47EC03989323010F42D
:10068000B8017CC08A859A8989278A87243011F02D
:10069000223031F4231709F06EC060E670E06EC0BE
:1006A000343039F41D861E861F86188A1C861B86E8
:1006B00004C0323021F484E08987B7015FC02B8504
:1006C0003C858B899C89281B390B3C872B87ED84C3
:1006D000FE840F851889AD88BE88CF88D88CEA142F
:1006E000FB040C051D0540F4EE0CFF1C001F111F40
:1006F000215030403C872B8720E030E040E050E044
:1007000080E090E0A0E0B0E460E070E0EA14FB0478
:100710000C051D0540F0282B392B4A2B5B2BEA18C2
:10072000FB080C091D09B695A79597958795EE0CC2
:10073000FF1C001F111F6F5F7F4F6F31710531F775
:10074000DA01C9018F779070A070B0708034910584
:10075000A105B10561F427FD0AC0E114F10401050A
:10076000110529F0205C3F4F4F4F5F4F20782D87B8
:100770003E874F87588BBE01675F7F4FCB010E943A
:1007800011056896EAE00C94E70FA8E1B0E0EBEC05
:10079000F3E00C94CF0F69837A838B839C832D8342
:1007A0003E834F83588789E0E82EF12CEC0EFD1E26
:1007B000CE010196B7010E94E6058E010F5E1F4F24
:1007C000CE010596B8010E94E6058985823040F089
:1007D0008989823028F0C701B8010E945E0601C0F5
:1007E0008FEF6896E6E00C94EB0FACE0B0E0EBEF37
:1007F000F3E00C94D30F69837A838B839C83CE01BF
:100800000196BE016B5F7F4F0E94E6058D818230AD
:1008100061F1823050F1843021F48E81882351F1CE
:100820002EC02F81388537FD20C06E812F313105D4
:100830001CF06623F9F023C08EE190E0821B930B3D
:1008400029853A854B855C8504C056954795379533
:1008500027958A95D2F76623B1F05095409530954B
:1008600021953F4F4F4F5F4F0EC020E030E040E0FA
:1008700050E009C02FEF3FEF4FEF5FE704C020E0EB
:1008800030E040E050E8B901CA012C96E2E00C9457
:10089000EF0FA8E0B0E0EFE4F4E00C94CB0F7B01A5
:1008A0008C01611571058105910519F482E0898338
:1008B00060C083E089838EE1C82ED12CDC82CB829C
:1008C000ED82FE820F831887C801B7010E94C2041F
:1008D000FC013197F7FF3BC0222733272E1B3F0B2C
:1008E00057016801022E04C0D694C794B794A79408
:1008F0000A94D2F740E050E060E070E081E090E0E0
:10090000A0E0B0E004C0880F991FAA1FBB1F2A9562
:10091000D2F70197A109B1098E219F21A023B1230C
:100920000097A105B10521F041E050E060E070E0E2
:100930004A295B296C297D294D835E836F837887E3
:100940008EE190E08E1B9F0B9C838B8312C03097AF
:1009500081F00E2E04C0EE0CFF1C001F111F0A9424
:10096000D2F7ED82FE820F831887CE1ADF0ADC826F
:10097000CB821A82CE0101960E9411052896EAE0E8
:100980000C94E70FEF92FF920F931F937B018C0162
:1009900080E0E81680E0F80681E0080780E01807AC
:1009A00088F48FEFE816F1040105110531F028F005
:1009B00088E090E0A0E0B0E017C080E090E0A0E028
:1009C000B0E012C080E0E81680E0F80680E008079A
:1009D00081E0180728F088E190E0A0E0B0E004C0D2
:1009E00080E190E0A0E0B0E020E230E040E050E0C4
:1009F000281B390B4A0B5B0B04C016950795F7941F
:100A0000E7948A95D2F7F701E859FF4F8081281BB8
:100A1000310941095109C9011F910F91FF90EF90D0
:100A20000895DF92EF92FF920F931F93FC01E480F1
:100A3000F58006811781D1808081823048F480E082
:100A400090E0A0E1B0E0E82AF92A0A2B1B2BA5C010
:100A5000843009F49FC0823021F4EE24FF24870102
:100A600005C0E114F1040105110519F4E0E0F0E01E
:100A700096C0628173819FEF623879070CF05BC08A
:100A800022E83FEF261B370B2A3131052CF020E0FE
:100A900030E040E050E02AC0B801A701022E04C0B7
:100AA00076956795579547950A94D2F781E090E03F
:100AB000A0E0B0E004C0880F991FAA1FBB1F2A95B1
:100AC000D2F70197A109B1098E219F21A023B1235B
:100AD0000097A105B10521F081E090E0A0E0B0E031
:100AE0009A01AB01282B392B4A2B5B2BDA01C90168
:100AF0008F779070A070B07080349105A105B1051A
:100B000039F427FF09C0205C3F4F4F4F5F4F04C0AF
:100B1000215C3F4F4F4F5F4FE0E0F0E02030A0E01E
:100B20003A07A0E04A07A0E45A0710F0E1E0F0E03D
:100B300079018A0127C06038710564F5FB01E1582D
:100B4000FF4FD801C7018F779070A070B0708034CC
:100B50009105A105B10539F4E7FE0DC080E490E0F0
:100B6000A0E0B0E004C08FE390E0A0E0B0E0E80EC9
:100B7000F91E0A1F1B1F17FF05C016950795F7944E
:100B8000E794319687E016950795F794E7948A9550
:100B9000D1F705C0EE24FF248701EFEFF0E06E2FC0
:100BA000679566276795902F9F77D794DD24D79414
:100BB0008E2F8695492F462B582F5D29B701CA01E4
:100BC0001F910F91FF90EF90DF900895FC01DB01E2
:100BD000408151812281622F6F7770E0221F22278E
:100BE000221F9381892F880F822B282F30E0991F95
:100BF0009927991F11969C93119721153105A9F5F5
:100C0000411551056105710511F482E037C082E894
:100C10009FEF13969C938E9312979A01AB0167E016
:100C2000220F331F441F551F6A95D1F783E08C9321
:100C30000DC0220F331F441F551F12968D919C919A
:100C40001397019713969C938E931297203080E010
:100C5000380780E0480780E4580758F314962D932E
:100C60003D934D935C93179708952F3F310579F489
:100C7000411551056105710519F484E08C930895BF
:100C800064FF03C081E08C9312C01C9210C02F57E8
:100C9000304013963C932E93129783E08C9387E019
:100CA000440F551F661F771F8A95D1F770641496FD
:100CB0004D935D936D937C93179708951F93DC017B
:100CC000FB019C91923008F447C08081823008F487
:100CD00043C0943051F411961C91843099F5818170
:100CE000682F70E0611B71093FC0843021F09230A1
:100CF00031F48230B9F18181882389F12DC01196B8
:100D00001C9111978230F1F081811817D9F4129655
:100D10002D913C911397828193818217930794F0D0
:100D200028173907BCF014968D919D910D90BC91B8
:100D3000A02D2481358146815781281739074A071C
:100D40005B0718F4112341F00AC082179307A40728
:100D5000B50740F4112319F061E070E005C06FEFB2
:100D60007FEF02C060E070E0CB011F910895DF9338
:100D7000CF93CDB7DEB7A7E2B0E0E7E2F0E0808145
:100D800080648C93A7E2B0E0E7E2F0E080818068C5
:100D90008C93A6E2B0E0E6E2F0E0808180688C937C
:100DA000A6E2B0E0E6E2F0E0808184608C93A6E207
:100DB000B0E0E6E2F0E0808182608C93CF91DF9139
:100DC0000895DF93CF9300D0CDB7DEB7A6E2B0E0B1
:100DD000E6E2F0E0808180648C93E6E2F0E08081DE
:100DE000882F90E08071907095958795959587955F
:100DF0009595879595958795009779F3A6E2B0E04C
:100E0000E6E2F0E0808180618C93E4E2F0E08081B2
:100E1000882F90E09A838983E5E2F0E08081882F33
:100E200090E0982F88279C0189819A81822B932BAF
:100E30009A83898389819A810F900F90CF91DF9156
:100E40000895DF93CF9300D000D00F92CDB7DEB7D7
:100E500089836A834B838981282F30E03D832C83EB
:100E60008C819D818234910509F444C02C813D819F
:100E70002334310534F48C819D818134910571F0E6
:100E8000BCC02C813D812334310509F45FC08C81C5
:100E90009D818434910509F485C0AFC08B81813078
:100EA000A1F4AAE3B0E0EAE3F0E08081482F8A8170
:100EB000282F30E081E090E0022E02C0880F991FB9
:100EC0000A94E2F7842B8C9398C0AAE3B0E0EAE39B
:100ED000F0E08081482F8A81282F30E081E090E087
:100EE000022E02C0880F991F0A94E2F7809584238E
:100EF0008C9383C08B818130A1F4A7E3B0E0E7E35A
:100F0000F0E08081482F8A81282F30E081E090E056
:100F1000022E02C0880F991F0A94E2F7842B8C934B
:100F20006CC0A7E3B0E0E7E3F0E08081482F8A815E
:100F3000282F30E081E090E0022E02C0880F991F38
:100F40000A94E2F7809584238C9357C08B8181307B
:100F5000A1F4A4E3B0E0E4E3F0E08081482F8A81CB
:100F6000282F30E081E090E0022E02C0880F991F08
:100F70000A94E2F7842B8C9340C0A4E3B0E0E4E34E
:100F8000F0E08081482F8A81282F30E081E090E0D6
:100F9000022E02C0880F991F0A94E2F780958423DD
:100FA0008C932BC08B818130A1F4A1E3B0E0E1E30D
:100FB000F0E08081482F8A81282F30E081E090E0A6
:100FC000022E02C0880F991F0A94E2F7842B8C939B
:100FD00014C0A1E3B0E0E1E3F0E08081482F8A8112
:100FE000282F30E081E090E0022E02C0880F991F88
:100FF0000A94E2F7809584238C930F900F900F90C2
:101000000F900F90CF91DF910895DF93CF9300D091
:1010100000D00F92CDB7DEB789836A834B83898175
:10102000282F30E03D832C838C819D818234910573
:1010300009F444C02C813D812334310534F48C8182
:101040009D818134910571F0BCC02C813D81233498
:10105000310509F45FC08C819D818434910509F4C8
:1010600085C0AFC08B818130A1F4ABE3B0E0EBE38E
:10107000F0E08081482F8A81282F30E081E090E0E5
:10108000022E02C0880F991F0A94E2F7842B8C93DA
:1010900098C0ABE3B0E0EBE3F0E08081482F8A81B9
:1010A000282F30E081E090E0022E02C0880F991FC7
:1010B0000A94E2F7809584238C9383C08B818130DE
:1010C000A1F4A8E3B0E0E8E3F0E08081482F8A8152
:1010D000282F30E081E090E0022E02C0880F991F97
:1010E0000A94E2F7842B8C936CC0A8E3B0E0E8E3A9
:1010F000F0E08081482F8A81282F30E081E090E065
:10110000022E02C0880F991F0A94E2F7809584236B
:101110008C9357C08B818130A1F4A5E3B0E0E5E367
:10112000F0E08081482F8A81282F30E081E090E034
:10113000022E02C0880F991F0A94E2F7842B8C9329
:1011400040C0A5E3B0E0E5E3F0E08081482F8A816C
:10115000282F30E081E090E0022E02C0880F991F16
:101160000A94E2F7809584238C932BC08B81813085
:10117000A1F4A2E3B0E0E2E3F0E08081482F8A81AD
:10118000282F30E081E090E0022E02C0880F991FE6
:101190000A94E2F7842B8C9314C0A2E3B0E0E2E35C
:1011A000F0E08081482F8A81282F30E081E090E0B4
:1011B000022E02C0880F991F0A94E2F780958423BB
:1011C0008C930F900F900F900F900F90CF91DF9115
:1011D0000895DF93CF9300D000D00F92CDB7DEB744
:1011E0008A836B8319828A81282F30E03D832C8388
:1011F0004C815D8142345105B1F18C819D818334F4
:10120000910534F42C813D812134310571F084C085
:101210004C815D814334510509F443C08C819D812B
:101220008434910509F45BC077C0E9E3F0E0808184
:10123000482F50E08B81282F30E081E090E002C001
:10124000880F991F2A95E2F79A01282339238B8169
:10125000882F90E0A90102C0559547958A95E2F73D
:10126000CA01898359C0E6E3F0E08081482F50E04D
:101270008B81282F30E081E090E002C0880F991F19
:101280002A95E2F79A01282339238B81882F90E051
:10129000A90102C0559547958A95E2F7CA0189834D
:1012A0003BC0E3E3F0E08081482F50E08B81282FA2
:1012B00030E081E090E002C0880F991F2A95E2F7A4
:1012C0009A01282339238B81882F90E0A90102C03D
:1012D000559547958A95E2F7CA0189831DC0E0E3D9
:1012E000F0E08081482F50E08B81282F30E081E0B2
:1012F00090E002C0880F991F2A95E2F79A012823EF
:1013000039238B81882F90E0A90102C0559547951C
:101310008A95E2F7CA01898389810F900F900F9017
:101320000F900F90CF91DF910895DF93CF9300D06E
:1013300000D0CDB7DEB789836A838981282F30E05A
:101340003C832B838B819C818234910551F12B81CD
:101350003C812334310534F48B819C8181349105A7
:1013600061F05AC02B813C812334310571F18B81AE
:101370009C8184349105E9F14FC0ABE3B0E0EBE32D
:10138000F0E08081482F8A81282F30E081E090E0D2
:10139000022E02C0880F991F0A94E2F784278C93CB
:1013A0003BC0A8E3B0E0E8E3F0E08081482F8A8109
:1013B000282F30E081E090E0022E02C0880F991FB4
:1013C0000A94E2F784278C9327C0A5E3B0E0E5E315
:1013D000F0E08081482F8A81282F30E081E090E082
:1013E000022E02C0880F991F0A94E2F784278C937B
:1013F00013C0A2E3B0E0E2E3F0E08081482F8A81ED
:10140000282F30E081E090E0022E02C0880F991F63
:101410000A94E2F784278C930F900F900F900F900F
:10142000CF91DF910895DF93CF9300D000D0CDB757
:10143000DEB789836A838981282F30E03C832B8340
:101440008B819C8182349105D9F02B813C8123349E
:10145000310534F48B819C818134910561F01EC08B
:101460002B813C812334310581F08B819C81843434
:10147000910581F013C0EBE3F0E08A8180830EC018
:10148000E8E3F0E08A81808309C0E5E3F0E08A8147
:10149000808304C0E2E3F0E08A8180830F900F90A4
:1014A0000F900F90CF91DF910895DF93CF9300D0ED
:1014B00000D0CDB7DEB789836A838981282F30E0D9
:1014C0003C832B838B819C818234910509F12B8194
:1014D0003C812334310534F48B819C818134910526
:1014E00061F036C02B813C8123343105E1F08B81E2
:1014F0009C818434910511F12BC0ABE3B0E0EBE3A8
:10150000F0E08081982F8A81807F892B8C9320C086
:10151000A8E3B0E0E8E3F0E08081982F8A81807F43
:10152000892B8C9315C0A5E3B0E0E5E3F0E0808162
:10153000982F8A81807F892B8C930AC0A2E3B0E028
:10154000E2E3F0E08081982F8A81807F892B8C9361
:101550000F900F900F900F90CF91DF910895DF9330
:10156000CF9300D00F92CDB7DEB789838981282F22
:1015700030E03B832A838A819B8182349105F1F09C
:101580002A813B812334310534F48A819B81813463
:10159000910561F02AC02A813B8123343105B1F0E5
:1015A0008A819B8184349105C9F01FC0ABE3B0E010
:1015B000EBE3F0E080818F708C9317C0A8E3B0E07C
:1015C000E8E3F0E080818F708C930FC0A5E3B0E07A
:1015D000E5E3F0E080818F708C9307C0A2E3B0E078
:1015E000E2E3F0E080818F708C930F900F900F906A
:1015F000CF91DF910895DF93CF9300D000D00F9269
:10160000CDB7DEB789836A834B838981282F30E089
:101610003D832C838C819D818234910509F45EC0C9
:101620002C813D812334310534F48C819D818134BA
:10163000910571F024C12C813D812334310509F4D9
:1016400093C08C819D818434910509F4D3C017C166
:101650008B81813071F5A0E5B0E0E0E5F0E08081BC
:101660008B7F8C93AAE3B0E0EAE3F0E08081482F1F
:101670008A81282F30E081E090E002C0880F991F16
:101680002A95E2F7809584238C93ABE3B0E0EBE3FB
:10169000F0E08081482F8A81282F30E081E090E0BF
:1016A000022E02C0880F991F0A94E2F7842B8C93B4
:1016B000E6C0ABE3B0E0EBE3F0E08081482F8A8145
:1016C000282F30E081E090E0022E02C0880F991FA1
:1016D0000A94E2F7809584238C93D1C08B8181306A
:1016E00071F5A0E5B0E0E0E5F0E080818B7F8C93C0
:1016F000A7E3B0E0E7E3F0E08081482F8A81282F5C
:1017000030E081E090E002C0880F991F2A95E2F74F
:10171000809584238C93A8E3B0E0E8E3F0E0808137
:10172000482F8A81282F30E081E090E0022E02C00D
:10173000880F991F0A94E2F7842B8C93A0C0A8E32A
:10174000B0E0E8E3F0E08081482F8A81282F30E084
:1017500081E090E0022E02C0880F991F0A94E2F700
:10176000809584238C938BC08B81813071F5A0E5AB
:10177000B0E0E0E5F0E080818B7F8C93A4E3B0E003
:10178000E4E3F0E08081482F8A81282F30E081E077
:1017900090E002C0880F991F2A95E2F78095842374
:1017A0008C93A5E3B0E0E5E3F0E08081482F8A81E7
:1017B000282F30E081E090E0022E02C0880F991FB0
:1017C0000A94E2F7842B8C935AC0A5E3B0E0E5E3DA
:1017D000F0E08081482F8A81282F30E081E090E07E
:1017E000022E02C0880F991F0A94E2F78095842385
:1017F0008C9345C08B81813071F5A0E5B0E0E0E5C8
:10180000F0E080818B7F8C93A1E3B0E0E1E3F0E036
:101810008081482F8A81282F30E081E090E002C04B
:10182000880F991F2A95E2F7809584238C93A2E371
:10183000B0E0E2E3F0E08081482F8A81282F30E099
:1018400081E090E0022E02C0880F991F0A94E2F70F
:10185000842B8C9314C0A2E3B0E0E2E3F0E080813B
:10186000482F8A81282F30E081E090E0022E02C0CC
:10187000880F991F0A94E2F7809584238C930F9028
:101880000F900F900F900F90CF91DF910895DF93FD
:10189000CF9300D0CDB7DEB789836A8389816A810F
:1018A00041E00E9421070F900F90CF91DF910895A2
:1018B000DF93CF9300D0CDB7DEB789836A83898168
:1018C0006A8141E00E9405080F900F90CF91DF914F
:1018D0000895DF93CF9300D0CDB7DEB789836A83B5
:1018E00089816A8140E00E9405080F900F90CF9196
:1018F000DF910895DF93CF9300D0CDB7DEB7898312
:101900006A8389816A810E9495090F900F90CF9117
:10191000DF910895DF93CF9300D0CDB7DEB78983F1
:101920006A8389816A810E94E9080F900F90CF91A4
:10193000DF910895DF93CF93CDB7DEB7A7E3B0E093
:10194000E7E3F0E08081806B8C93ADE2B0E0EDE204
:10195000F0E0808181658C93CF91DF910895DF93D2
:10196000CF93CDB7DEB7A7E3B0E0E7E3F0E0808147
:1019700080648C93ADE2B0E0EDE2F0E080818064C1
:101980008C93CF91DF910895DF93CF930F92CDB7D2
:10199000DEB78983EFE2F0E089818083EEE2F0E058
:1019A0008081881F8827881F882F90E0907000977B
:1019B000A9F3EFE2F0E080810F90CF91DF910895DD
:1019C000DF93CF9300D000D0CDB7DEB70E94B7062B
:1019D0000E94FF0E0E94AF0C84E462E00E94470C5C
:1019E00084E463E00E94470C84E464E00E94470CB6
:1019F00084E465E00E94470C84E466E00E94470CA2
:101A000084E467E00E94470C8FEF8A838FEF89831D
:101A10008FEF0E94C40C8A838A81282F30E03C8398
:101A20002B838B819C818432910509F413C12B8116
:101A30003C81253231050CF049C08B819C81853178
:101A4000910509F4E4C02B813C8126313105FCF479
:101A50008B819C818231910509F489C02B813C8165
:101A6000233131053CF48B819C818131910509F44E
:101A70006AC0CECF2B813C812331310509F48BC064
:101A80008B819C818431910509F499C0C1CF2B8150
:101A90003C812132310509F4CEC08B819C81823298
:101AA00091053CF42B813C812631310509F49BC022
:101AB000AFCF8B819C818232910509F4C1C02B810B
:101AC0003C812332310509F4C0C0A2CF8B819C81B7
:101AD0008333910509F4D9C02B813C81243331052E
:101AE000CCF48B819C818632910509F4B8C02B819E
:101AF0003C81263231050CF4B9C08B819C81813345
:101B0000910509F4B8C02B813C812233310509F4D9
:101B1000B7C07ECF8B819C818533910509F4C6C007
:101B20002B813C81253331050CF4B4C08B819C8121
:101B30008633910509F4B3C02B813C8120343105F3
:101B400009F4B9C065CF84E464E00E948A0C88235C
:101B500011F4198208C084E464E00E948A0C813088
:101B600011F481E0898389810E94C40C51CF84E4FF
:101B700065E00E948A0C882311F4198208C084E46D
:101B800065E00E948A0C813011F481E089838981AB
:101B90000E94C40C3DCF84E466E00E948A0C882336
:101BA00011F4198208C084E466E00E948A0C813036
:101BB00011F481E0898389810E94C40C29CF84E4D7
:101BC00067E00E948A0C882311F4198208C084E41B
:101BD00067E00E948A0C813011F481E08983898159
:101BE0000E94C40C15CF84E462E00E948A0C882312
:101BF00011F4198208C084E462E00E948A0C8130EA
:101C000011F481E0898389810E94C40C01CF84E4AE
:101C100063E00E948A0C882311F4198208C084E4CE
:101C200063E00E948A0C813011F481E0898389810C
:101C30000E94C40CEDCE84E464E00E94580CE8CE0F
:101C400084E465E00E94580CE3CE84E466E00E94E0
:101C5000580CDECE84E467E00E94580CD9CE0E9476
:101C6000FF0E84E462E00E94580CD2CE84E463E06C
:101C70000E94580CCDCE84E464E00E94690CC8CE6A
:101C800084E465E00E94690CC3CE84E466E00E94AF
:101C9000690CBECE84E467E00E94690CB9CE0E9454
:101CA000350F84E462E00E94690CB2CE84E463E004
:101CB0000E94690CADCE8FEF0E94C40C882F90E07B
:101CC0009093690180936801A3CE1F920F920FB683
:101CD0000F9211242F933F934F935F936F937F93B2
:101CE0008F939F93AF93BF93EF93FF93DF93CF9324
:101CF000CDB7DEB780916C018F5F80936C018091CE
:101D00006C018A3008F468C010926C010E94E106F0
:101D1000CC01A0E0B0E0BC01CD010E944904DC018F
:101D2000CB01BC01CD0120E030E040E85EE30E9441
:101D30001F02DC01CB01BC01CD010E944900DC0186
:101D4000CB0190936B0180936A018091680190911F
:101D500069019C012F5F3F4F80916A0190916B0157
:101D60008217930740F084E462E00E94580C81E0FF
:101D700080936D0131C080916801909169019C014F
:101D80002150304080916A0190916B0128173907EA
:101D900038F084E462E00E94690C10926D011CC06E
:101DA000209168013091690180916A0190916B01E5
:101DB0002817390789F480916D01813029F484E472
:101DC00062E00E94580C08C080916D01882321F4C4
:101DD00084E462E00E94690CCF91DF91FF91EF9162
:101DE000BF91AF919F918F917F916F915F914F9133
:101DF0003F912F910F900FBE0F901F901895DF937A
:101E0000CF93CDB7DEB7ECE5F0E08EE48083A3E5B9
:101E1000B0E0E3E5F0E0808188608C93A3E5B0E07A
:101E2000E3E5F0E080818F7B8C93A3E5B0E0E3E510
:101E3000F0E0808181608C93A3E5B0E0E3E5F0E021
:101E400080818D7F8C93A3E5B0E0E3E5F0E08081B5
:101E500084608C937894A9E5B0E0E9E5F0E08081B6
:101E600082608C93CF91DF910895DF93CF93CDB7AC
:101E7000DEB7A3E5B0E0E3E5F0E080818E7F8C93F0
:101E8000A3E5B0E0E3E5F0E080818D7F8C93A3E5EE
:101E9000B0E0E3E5F0E080818B7F8C93CF91DF9120
:101EA0000895DF93CF93CDB7DEB7ECE5F0E080E89F
:101EB0008083A3E5B0E0E3E5F0E0808180648C936B
:101EC000A3E5B0E0E3E5F0E0808188608C9378944E
:101ED000A3E5B0E0E3E5F0E0808180628C93A9E5C2
:101EE000B0E0E9E5F0E0808181608C93A3E5B0E0AB
:101EF000E3E5F0E0808181608C93A3E5B0E0E3E569
:101F0000F0E080818D7F8C93A3E5B0E0E3E5F0E025
:101F1000808184608C93CF91DF9108950F931F93FC
:101F2000DF93CF9300D000D0CDB7DEB769837A833B
:101F30008B839C830CE510E069817A818B819C8185
:101F400020E030E048EC52E40E941903DC01CB01B0
:101F5000BC01CD0120E030E040E853E40E941F02C4
:101F6000DC01CB01BC01CD010E944900DC01CB01A9
:101F7000F80180830F900F900F900F90CF91DF9119
:101F80001F910F9108952F923F924F925F926F92FF
:101F90007F928F929F92AF92BF92CF92DF92EF92F9
:101FA000FF920F931F93CF93DF93CDB7DEB7CA1B7A
:101FB000DB0B0FB6F894DEBF0FBECDBF09942A88A5
:101FC000398848885F846E847D848C849B84AA844D
:101FD000B984C884DF80EE80FD800C811B81AA81DA
:101FE000B981CE0FD11D0FB6F894DEBF0FBECDBFA5
:081FF000ED010895F894FFCF04
:101FF80000000000000000000001020203030303C8
:102008000404040404040404050505050505050580
:102018000505050505050505060606060606060660
:102028000606060606060606060606060606060648
:102038000606060606060606070707070707070730
:102048000707070707070707070707070707070718
:102058000707070707070707070707070707070708
:1020680007070707070707070707070707070707F8
:1020780007070707070707070808080808080808E0
:1020880008080808080808080808080808080808C8
:1020980008080808080808080808080808080808B8
:1020A80008080808080808080808080808080808A8
:1020B8000808080808080808080808080808080898
:1020C8000808080808080808080808080808080888
:1020D8000808080808080808080808080808080878
:1020E8000808080808080808080808080808080868
:0A20F8000808080808080808180086
:00000001FF
