:100000000C942A000C9447000C9447000C94470071
:100010000C9447000C9447000C9447000C94470044
:100020000C9447000C9447000C94B61E0C944700A7
:100030000C9447000C9447000C9447000C94470024
:100040000C9447000C9447000C9447000C94470014
:100050000C94470011241FBECFE5D8E0DEBFCDBF12
:1000600012E0A0E6B0E0E4E4F9E502C005900D92EC
:10007000A23AB107D9F712E0A2EAB2E001C01D929C
:10008000A33BB107E1F70E948A0F0C94A02C0C94BB
:100090000000EF92FF920F931F937B018C0120E0F1
:1000A00030E040E05FE40E94F50388238CF0C80153
:1000B000B70120E030E040E05FE40E94C1010E940F
:1000C00055049B01AC01205030404040504806C0D0
:1000D000C801B7010E9455049B01AC01B901CA01D6
:1000E0001F910F91FF90EF900895A0E0B0E0EBE733
:1000F000F0E00C94692CDC012B01FA019C91923008
:1001000008F439C1EB018881823008F433C194309E
:1001100069F4843009F02FC111969C91119789815F
:10012000981709F428C1A2E8B2E025C1843009F487
:1001300021C18230A9F4923009F01DC19A01AD01AC
:1001400088E0EA010990AE01E90109929E0181501F
:10015000C1F7E201898111969C918923818308C1AD
:10016000923009F407C112962D903C901397EB0141
:100170008A819B811496AD90BD90CD90DC901797AD
:10018000EC80FD800E811F819101281B390BB90184
:1001900037FF04C066277727621B730B6032710537
:1001A0000CF061C0121613066CF537014801062EDB
:1001B00004C096948794779467940A94D2F721E0C8
:1001C00030E040E050E004C0220F331F441F551FB1
:1001D0006A95D2F721503040404050402E213F21B7
:1001E00040235123211531054105510521F021E01E
:1001F00030E040E050E079018A01E628F72808293C
:1002000019293CC0232BD1F1260E371E350146019A
:10021000062E04C096948794779467940A94D2F734
:1002200021E030E040E050E004C0220F331F441FC3
:10023000551F6A95D2F721503040404050402A2146
:100240003B214C215D21211531054105510521F04E
:1002500021E030E040E050E059016A01A628B728CB
:10026000C828D9280BC0821593052CF01C01AA249C
:10027000BB24650103C0EE24FF24870111969C91E5
:10028000D20111968C91981709F445C0992339F041
:10029000A80197012A193B094C095D0906C0A6016E
:1002A00095012E193F09400B510B57FD08C01182D3
:1002B0003382228224833583468357831DC081E0A5
:1002C00081833382228288279927DC01821B930B4A
:1002D000A40BB50B84839583A683B7830DC0220F2F
:1002E000331F441F551F24833583468357838281E0
:1002F000938101979383828324813581468157813D
:10030000DA01C9010197A109B1098F5F9F4FAF4F72
:10031000BF4328F30BC0918333822282EA0CFB1C7B
:100320000C1D1D1DE482F5820683178383E0808304
:10033000248135814681578157FF1AC0C901AA27F8
:1003400097FDA095BA2F81709070A070B0705695EF
:10035000479537952795822B932BA42BB52B848318
:100360009583A683B7838281938101969383828349
:10037000DF0101C0D201CD01CDB7DEB7E2E10C94BF
:10038000852CA0E2B0E0E7ECF1E00C94752C6983D9
:100390007A838B839C832D833E834F835887E9E048
:1003A000EE2EF12CEC0EFD1ECE010196B7010E943F
:1003B0007E058E010F5E1F4FCE010596B8010E948B
:1003C0007E058A8991E089278A8BC701B801AE0131
:1003D000475E5F4F0E9475000E94A904A096E6E068
:1003E0000C94912CA0E2B0E0E8EFF1E00C94752CB5
:1003F00069837A838B839C832D833E834F835887C5
:10040000F9E0EF2EF12CEC0EFD1ECE010196B701A6
:100410000E947E058E010F5E1F4FCE010596B8012A
:100420000E947E05C701B801AE01475E5F4F0E9482
:1004300075000E94A904A096E6E00C94912CA0E21D
:10044000B0E0E5E2F2E00C94692C69837A838B8357
:100450009C832D833E834F835887CE010196BE0136
:10046000675F7F4F0E947E05CE010596BE016F5EDD
:100470007F4F0E947E059985923088F0898982306D
:10048000C8F0943019F4823051F404C0843029F457
:10049000923081F482E892E0C6C0923049F420E0C4
:1004A0009A858A89981321E02A87CE010996BBC0D4
:1004B000823049F420E09A858A89981321E02A8BBA
:1004C000CE014196B0C02D843E844F8458886D88FB
:1004D0007E888F88988CEE24FF248701AA24BB2471
:1004E000650140E050E060E070E0E0E0F0E0C10174
:1004F00081709070892BE9F0E60CF71C081D191D1E
:100500009A01AB012A0D3B1D4C1D5D1D80E090E062
:10051000A0E0B0E0E614F7040805190520F481E036
:1005200090E0A0E0B0E0BA01A901480F591F6A1F8E
:100530007B1FAA0CBB1CCC1CDD1C97FE08C081E0F5
:1005400090E0A0E0B0E0A82AB92ACA2ADB2A3196B6
:10055000E032F10549F0660C771C881C991C569412
:10056000479437942794C3CFFA85EA892B893C892D
:100570008B859C85280F391F2E5F3F4F17C0CA01FE
:1005800081709070892B61F016950795F794E79428
:1005900080E090E0A0E0B0E8E82AF92A0A2B1B2BC3
:1005A00076956795579547952F5F3F4F77FDE7CF36
:1005B0000CC0440F551F661F771F17FD4160EE0CDE
:1005C000FF1C001F111F21503040403090E05907A0
:1005D00090E0690790E4790760F32B8F3C8FDB0193
:1005E000CA018F779070A070B07080349105A1051A
:1005F000B10561F447FD0AC0E114F10401051105DC
:1006000029F0405C5F4F6F4F7F4F40781A8EFE1786
:1006100011F081E08A8F4D8F5E8F6F8F78A383E01A
:10062000898FCE0149960E94A904A096E2E10C941C
:10063000852CA8E1B0E0EFE1F3E00C94712C698324
:100640007A838B839C832D833E834F835887B9E0C5
:10065000EB2EF12CEC0EFD1ECE010196B7010E948F
:100660007E058E010F5E1F4FCE010596B8010E94D8
:100670007E052985223008F47EC03989323010F495
:10068000B8017CC08A859A8989278A87243011F02D
:10069000223031F4231709F06EC062E872E06EC0B8
:1006A000343039F41D861E861F86188A1C861B86E8
:1006B00004C0323021F484E08987B7015FC02B8504
:1006C0003C858B899C89281B390B3C872B87ED84C3
:1006D000FE840F851889AD88BE88CF88D88CEA142F
:1006E000FB040C051D0540F4EE0CFF1C001F111F40
:1006F000215030403C872B8720E030E040E050E044
:1007000080E090E0A0E0B0E460E070E0EA14FB0478
:100710000C051D0540F0282B392B4A2B5B2BEA18C2
:10072000FB080C091D09B695A79597958795EE0CC2
:10073000FF1C001F111F6F5F7F4F6F31710531F775
:10074000DA01C9018F779070A070B0708034910584
:10075000A105B10561F427FD0AC0E114F10401050A
:10076000110529F0205C3F4F4F4F5F4F20782D87B8
:100770003E874F87588BBE01675F7F4FCB010E943A
:10078000A9046896EAE00C948D2CA8E1B0E0EBECAB
:10079000F3E00C94752C69837A838B839C832D837F
:1007A0003E834F83588789E0E82EF12CEC0EFD1E26
:1007B000CE010196B7010E947E058E010F5E1F4F8C
:1007C000CE010596B8010E947E058985823040F0F1
:1007D0008989823028F0C701B8010E94F60501C05E
:1007E0008FEF6896E6E00C94912CA8E1B0E0EBEF77
:1007F000F3E00C94752C69837A838B839C832D831F
:100800003E834F83588789E0E82EF12CEC0EFD1EC5
:10081000CE010196B7010E947E058E010F5E1F4F2B
:10082000CE010596B8010E947E058985823040F090
:100830008989823028F0C701B8010E94F60501C0FD
:100840008FEF6896E6E00C94912CA8E1B0E0EBE223
:10085000F4E00C94752C69837A838B839C832D83BD
:100860003E834F83588789E0E82EF12CEC0EFD1E65
:10087000CE010196B7010E947E058E010F5E1F4FCB
:10088000CE010596B8010E947E058985823040F030
:100890008989823028F0C701B8010E94F60501C09D
:1008A00081E06896E6E00C94912CACE0B0E0EBE5DA
:1008B000F4E00C94792C69837A838B839C83CE013A
:1008C0000196BE016B5F7F4F0E947E058D81823055
:1008D00061F1823050F1843021F48E81882351F10E
:1008E0002EC02F81388537FD20C06E812F31310514
:1008F0001CF06623F9F023C08EE190E0821B930B7D
:1009000029853A854B855C8504C056954795379572
:1009100027958A95D2F76623B1F05095409530958A
:1009200021953F4F4F4F5F4F0EC020E030E040E039
:1009300050E009C02FEF3FEF4FEF5FE704C020E02A
:1009400030E040E050E8B901CA012C96E2E00C9496
:10095000952CDF92EF92FF920F931F93FC01E4809E
:10096000F58006811781D1808081823048F480E053
:1009700090E0A0E1B0E0E82AF92A0A2B1B2BA5C0E1
:10098000843009F49FC0823021F4EE24FF248701D3
:1009900005C0E114F1040105110519F4E0E0F0E0EF
:1009A00096C0628173819FEF623879070CF05BC05B
:1009B00022E83FEF261B370B2A3131052CF020E0CF
:1009C00030E040E050E02AC0B801A701022E04C088
:1009D00076956795579547950A94D2F781E090E010
:1009E000A0E0B0E004C0880F991FAA1FBB1F2A9582
:1009F000D2F70197A109B1098E219F21A023B1232C
:100A00000097A105B10521F081E090E0A0E0B0E001
:100A10009A01AB01282B392B4A2B5B2BDA01C90138
:100A20008F779070A070B07080349105A105B105EA
:100A300039F427FF09C0205C3F4F4F4F5F4F04C080
:100A4000215C3F4F4F4F5F4FE0E0F0E02030A0E0EF
:100A50003A07A0E04A07A0E45A0710F0E1E0F0E00E
:100A600079018A0127C06038710564F5FB01E158FE
:100A7000FF4FD801C7018F779070A070B07080349D
:100A80009105A105B10539F4E7FE0DC080E490E0C1
:100A9000A0E0B0E004C08FE390E0A0E0B0E0E80E9A
:100AA000F91E0A1F1B1F17FF05C016950795F7941F
:100AB000E794319687E016950795F794E7948A9521
:100AC000D1F705C0EE24FF248701EFEFF0E06E2F91
:100AD000679566276795902F9F77D794DD24D794E5
:100AE0008E2F8695492F462B582F5D29B701CA01B5
:100AF0001F910F91FF90EF90DF900895FC01DB01B3
:100B0000408151812281622F6F7770E0221F22275E
:100B1000221F9381892F880F822B282F30E0991F65
:100B20009927991F11969C93119721153105A9F5C5
:100B3000411551056105710511F482E037C082E865
:100B40009FEF13969C938E9312979A01AB0167E0E7
:100B5000220F331F441F551F6A95D1F783E08C93F2
:100B60000DC0220F331F441F551F12968D919C916B
:100B70001397019713969C938E931297203080E0E1
:100B8000380780E0480780E4580758F314962D93FF
:100B90003D934D935C93179708952F3F310579F45A
:100BA000411551056105710519F484E08C93089590
:100BB00064FF03C081E08C9312C01C9210C02F57B9
:100BC000304013963C932E93129783E08C9387E0EA
:100BD000440F551F661F771F8A95D1F770641496CE
:100BE0004D935D936D937C93179708951F93DC014C
:100BF000FB019C91923008F447C08081823008F458
:100C000043C0943051F411961C91843099F5818140
:100C1000682F70E0611B71093FC0843021F0923071
:100C200031F48230B9F18181882389F12DC0119688
:100C30001C9111978230F1F081811817D9F4129626
:100C40002D913C911397828193818217930794F0A1
:100C500028173907BCF014968D919D910D90BC9189
:100C6000A02D2481358146815781281739074A07ED
:100C70005B0718F4112341F00AC082179307A407F9
:100C8000B50740F4112319F061E070E005C06FEF83
:100C90007FEF02C060E070E0CB011F910895DF9309
:100CA000CF9300D000D00F92CDB7DEB789836A838F
:100CB0004B838981282F30E03D832C838C819D815B
:100CC0008234910509F444C02C813D8123343105DF
:100CD00034F48C819D818134910571F0BCC02C81EC
:100CE0003D812334310509F45FC08C819D818434BA
:100CF000910509F485C0AFC08B818130A1F4AAE3CE
:100D0000B0E0EAE3F0E08081482F8A81282F30E0CC
:100D100081E090E0022E02C0880F991F0A94E2F74A
:100D2000842B8C9398C0AAE3B0E0EAE3F0E08081E2
:100D3000482F8A81282F30E081E090E0022E02C007
:100D4000880F991F0A94E2F7809584238C9383C0BF
:100D50008B818130A1F4A7E3B0E0E7E3F0E080818C
:100D6000482F8A81282F30E081E090E0022E02C0D7
:100D7000880F991F0A94E2F7842B8C936CC0A7E329
:100D8000B0E0E7E3F0E08081482F8A81282F30E04F
:100D900081E090E0022E02C0880F991F0A94E2F7CA
:100DA000809584238C9357C08B818130A1F4A4E378
:100DB000B0E0E4E3F0E08081482F8A81282F30E022
:100DC00081E090E0022E02C0880F991F0A94E2F79A
:100DD000842B8C9340C0A4E3B0E0E4E3F0E0808196
:100DE000482F8A81282F30E081E090E0022E02C057
:100DF000880F991F0A94E2F7809584238C932BC067
:100E00008B818130A1F4A1E3B0E0E1E3F0E08081E7
:100E1000482F8A81282F30E081E090E0022E02C026
:100E2000880F991F0A94E2F7842B8C9314C0A1E3D6
:100E3000B0E0E1E3F0E08081482F8A81282F30E0A4
:100E400081E090E0022E02C0880F991F0A94E2F719
:100E5000809584238C930F900F900F900F900F909C
:100E6000CF91DF910895DF93CF9300D000D00F9200
:100E7000CDB7DEB789836A834B838981282F30E021
:100E80003D832C838C819D818234910509F444C07B
:100E90002C813D812334310534F48C819D81813452
:100EA000910571F0BCC02C813D812334310509F4DA
:100EB0005FC08C819D818434910509F485C0AFC0E9
:100EC0008B818130A1F4ABE3B0E0EBE3F0E0808113
:100ED000482F8A81282F30E081E090E0022E02C066
:100EE000880F991F0A94E2F7842B8C9398C0ABE388
:100EF000B0E0EBE3F0E08081482F8A81282F30E0DA
:100F000081E090E0022E02C0880F991F0A94E2F758
:100F1000809584238C9383C08B818130A1F4A8E3D6
:100F2000B0E0E8E3F0E08081482F8A81282F30E0AC
:100F300081E090E0022E02C0880F991F0A94E2F728
:100F4000842B8C936CC0A8E3B0E0E8E3F0E08081F0
:100F5000482F8A81282F30E081E090E0022E02C0E5
:100F6000880F991F0A94E2F7809584238C9357C0C9
:100F70008B818130A1F4A5E3B0E0E5E3F0E080816E
:100F8000482F8A81282F30E081E090E0022E02C0B5
:100F9000880F991F0A94E2F7842B8C9340C0A5E335
:100FA000B0E0E5E3F0E08081482F8A81282F30E02F
:100FB00081E090E0022E02C0880F991F0A94E2F7A8
:100FC000809584238C932BC08B818130A1F4A2E384
:100FD000B0E0E2E3F0E08081482F8A81282F30E002
:100FE00081E090E0022E02C0880F991F0A94E2F778
:100FF000842B8C9314C0A2E3B0E0E2E3F0E08081A4
:10100000482F8A81282F30E081E090E0022E02C034
:10101000880F991F0A94E2F7809584238C930F9090
:101020000F900F900F900F90CF91DF910895DF9365
:10103000CF9300D000D00F92CDB7DEB78A836B83F9
:1010400019828A81282F30E03D832C834C815D8179
:1010500042345105B1F18C819D818334910534F482
:101060002C813D812134310571F084C04C815D813A
:101070004334510509F443C08C819D81843491052A
:1010800009F45BC077C0E9E3F0E08081482F50E0CD
:101090008B81282F30E081E090E002C0880F991FFB
:1010A0002A95E2F79A01282339238B81882F90E033
:1010B000A90102C0559547958A95E2F7CA0189832F
:1010C00059C0E6E3F0E08081482F50E08B81282F63
:1010D00030E081E090E002C0880F991F2A95E2F786
:1010E0009A01282339238B81882F90E0A90102C01F
:1010F000559547958A95E2F7CA0189833BC0E3E39A
:10110000F0E08081482F50E08B81282F30E081E093
:1011100090E002C0880F991F2A95E2F79A012823D0
:1011200039238B81882F90E0A90102C055954795FE
:101130008A95E2F7CA0189831DC0E0E3F0E080816F
:10114000482F50E08B81282F30E081E090E002C0F2
:10115000880F991F2A95E2F79A01282339238B815A
:10116000882F90E0A90102C0559547958A95E2F72E
:10117000CA01898389810F900F900F900F900F9073
:10118000CF91DF910895DF93CF9300D000D0CDB7FA
:10119000DEB789836A838981282F30E03C832B83E3
:1011A0008B819C818234910551F12B813C812334C8
:1011B000310534F48B819C818134910561F05AC0F2
:1011C0002B813C812334310571F18B819C818434E6
:1011D0009105E9F14FC0ABE3B0E0EBE3F0E08081D3
:1011E000482F8A81282F30E081E090E0022E02C053
:1011F000880F991F0A94E2F784278C933BC0A8E3D9
:10120000B0E0E8E3F0E08081482F8A81282F30E0C9
:1012100081E090E0022E02C0880F991F0A94E2F745
:1012200084278C9327C0A5E3B0E0E5E3F0E080815C
:10123000482F8A81282F30E081E090E0022E02C002
:10124000880F991F0A94E2F784278C9313C0A2E3B6
:10125000B0E0E2E3F0E08081482F8A81282F30E07F
:1012600081E090E0022E02C0880F991F0A94E2F7F5
:1012700084278C930F900F900F900F90CF91DF9158
:101280000895DF93CF9300D000D0CDB7DEB7898328
:101290006A838981282F30E03C832B838B819C815A
:1012A00082349105D9F02B813C812334310534F40B
:1012B0008B819C818134910561F01EC02B813C8122
:1012C0002334310581F08B819C818434910581F038
:1012D00013C0EBE3F0E08A8180830EC0E8E3F0E026
:1012E0008A81808309C0E5E3F0E08A81808304C0BD
:1012F000E2E3F0E08A8180830F900F900F900F90CF
:10130000CF91DF910895DF93CF9300D000D0CDB778
:10131000DEB789836A838981282F30E03C832B8361
:101320008B819C818234910509F12B813C8123348E
:10133000310534F48B819C818134910561F036C094
:101340002B813C8123343105E1F08B819C818434F5
:10135000910511F12BC0ABE3B0E0EBE3F0E080814D
:10136000982F8A81807F892B8C9320C0A8E3B0E0DE
:10137000E8E3F0E08081982F8A81807F892B8C932D
:1013800015C0A5E3B0E0E5E3F0E08081982F8A8105
:10139000807F892B8C930AC0A2E3B0E0E2E3F0E007
:1013A0008081982F8A81807F892B8C930F900F905A
:1013B0000F900F90CF91DF910895DF93CF9300D0DE
:1013C0000F92CDB7DEB789838981282F30E03B8328
:1013D0002A838A819B8182349105F1F02A813B81A5
:1013E0002334310534F48A819B818134910561F085
:1013F0002AC02A813B8123343105B1F08A819B8147
:1014000084349105C9F01FC0ABE3B0E0EBE3F0E03A
:1014100080818F708C9317C0A8E3B0E0E8E3F0E020
:1014200080818F708C930FC0A5E3B0E0E5E3F0E01E
:1014300080818F708C9307C0A2E3B0E0E2E3F0E01C
:1014400080818F708C930F900F900F90CF91DF91D0
:101450000895DF93CF9300D000D00F92CDB7DEB7C1
:1014600089836A834B838981282F30E03D832C83D5
:101470008C819D818234910509F45EC02C813D816F
:101480002334310534F48C819D818134910571F0D0
:1014900024C12C813D812334310509F493C08C8112
:1014A0009D818434910509F4D3C017C18B818130AB
:1014B00071F5A0E5B0E0E0E5F0E080818B7F8C93F2
:1014C000AAE3B0E0EAE3F0E08081482F8A81282F88
:1014D00030E081E090E002C0880F991F2A95E2F782
:1014E000809584238C93ABE3B0E0EBE3F0E0808164
:1014F000482F8A81282F30E081E090E0022E02C040
:10150000880F991F0A94E2F7842B8C93E6C0ABE313
:10151000B0E0EBE3F0E08081482F8A81282F30E0B3
:1015200081E090E0022E02C0880F991F0A94E2F732
:10153000809584238C93D1C08B81813071F5A0E597
:10154000B0E0E0E5F0E080818B7F8C93A7E3B0E032
:10155000E7E3F0E08081482F8A81282F30E081E0A6
:1015600090E002C0880F991F2A95E2F780958423A6
:101570008C93A8E3B0E0E8E3F0E08081482F8A8113
:10158000282F30E081E090E0022E02C0880F991FE2
:101590000A94E2F7842B8C93A0C0A8E3B0E0E8E3C0
:1015A000F0E08081482F8A81282F30E081E090E0B0
:1015B000022E02C0880F991F0A94E2F780958423B7
:1015C0008C938BC08B81813071F5A0E5B0E0E0E5B4
:1015D000F0E080818B7F8C93A4E3B0E0E4E3F0E063
:1015E0008081482F8A81282F30E081E090E002C07E
:1015F000880F991F2A95E2F7809584238C93A5E3A1
:10160000B0E0E5E3F0E08081482F8A81282F30E0C8
:1016100081E090E0022E02C0880F991F0A94E2F741
:10162000842B8C935AC0A5E3B0E0E5E3F0E0808121
:10163000482F8A81282F30E081E090E0022E02C0FE
:10164000880F991F0A94E2F7809584238C9345C0F4
:101650008B81813071F5A0E5B0E0E0E5F0E08081BC
:101660008B7F8C93A1E3B0E0E1E3F0E08081482F31
:101670008A81282F30E081E090E002C0880F991F16
:101680002A95E2F7809584238C93A2E3B0E0E2E30D
:10169000F0E08081482F8A81282F30E081E090E0BF
:1016A000022E02C0880F991F0A94E2F7842B8C93B4
:1016B00014C0A2E3B0E0E2E3F0E08081482F8A8129
:1016C000282F30E081E090E0022E02C0880F991FA1
:1016D0000A94E2F7809584238C930F900F900F90DB
:1016E0000F900F90CF91DF910895DF93CF93CDB7F7
:1016F000DEB72E970FB6F894DEBF0FBECDBF81E4E4
:1017000060E041E00E944F0681E461E041E00E9418
:101710004F0681E462E041E00E944F0681E463E00D
:1017200041E00E944F0681E464E041E00E944F06E0
:1017300081E465E041E00E944F0681E466E041E01B
:101740000E944F0681E467E041E00E944F0682E478
:1017500060E041E00E944F0682E462E041E00E94C6
:101760004F0682E461E041E00E944F0682E462E0BD
:1017700040E00E94330788E30E94400D81E00E9410
:10178000400D8EE00E94400D80E090E0A0E2B1E4C8
:101790008B879C87AD87BE876B857C858D859E8575
:1017A00020E030E04AEF54E40E941F02DC01CB014C
:1017B0008F839887A987BA876F81788589859A856D
:1017C00020E030E040E85FE30E94250488232CF409
:1017D00081E090E09E838D833FC06F81788589850D
:1017E0009A8520E03FEF4FE757E40E94C5031816A3
:1017F0004CF56B857C858D859E8520E030E040E250
:1018000051E40E941F02DC01CB01BC01CD010E940A
:101810004900DC01CB019E838D830FC088EC90E0F2
:101820009C838B838B819C810197F1F79C838B83B5
:101830008D819E8101979E838D838D819E810097EE
:1018400069F714C06F81788589859A850E9449005F
:10185000DC01CB019E838D838D819E819A83898358
:1018600089819A810197F1F79A8389832E960FB621
:10187000F894DEBF0FBECDBFCF91DF910895DF9307
:10188000CF93CDB7DEB76C970FB6F894DEBF0FBE1F
:10189000CDBF82E460E041E00E94330780E090E049
:1018A000A0E0B0E4898F9A8FAB8FBC8F698D7A8D61
:1018B0008B8D9C8D20E030E04AEF54E40E941F02A3
:1018C000DC01CB018D8B9E8BAF8BB88F6D897E89B0
:1018D0008F89988D20E030E040E85FE30E94250486
:1018E00088232CF481E090E09C8B8B8B3FC06D892A
:1018F0007E898F89988D20E03FEF4FE757E40E9463
:10190000C50318164CF5698D7A8D8B8D9C8D20E062
:1019100030E040E251E40E941F02DC01CB01BC0137
:10192000CD010E944900DC01CB019C8B8B8B0FC049
:1019300088EC90E09A8B898B89899A890197F1F7D5
:101940009A8B898B8B899C8901979C8B8B8B8B893C
:101950009C89009769F714C06D897E898F89988D5D
:101960000E944900DC01CB019C8B8B8B8B899C896D
:10197000988B8F878F8598890197F1F7988B8F8740
:1019800082E460E040E00E94330780E090E0A0E065
:10199000B0E48B879C87AD87BE876B857C858D8502
:1019A0009E8520E030E04AEF54E40E941F02DC01F3
:1019B000CB018F839887A987BA876F8178858985BE
:1019C0009A8520E030E040E85FE30E942504882308
:1019D0002CF481E090E09E838D833FC06F817885F9
:1019E00089859A8520E03FEF4FE757E40E94C503C1
:1019F00018164CF56B857C858D859E8520E030E042
:101A000040E251E40E941F02DC01CB01BC01CD0188
:101A10000E944900DC01CB019E838D830FC088ECBE
:101A200090E09C838B838B819C810197F1F79C8351
:101A30008B838D819E8101979E838D838D819E8175
:101A4000009769F714C06F81788589859A850E940F
:101A50004900DC01CB019E838D838D819E819A8319
:101A6000898389819A810197F1F79A8389836C969A
:101A70000FB6F894DEBF0FBECDBFCF91DF910895B2
:101A8000DF93CF930F92CDB7DEB7898381E469816D
:101A90000E94410982E461E040E00E9433070E9415
:101AA0003F0C0F90CF91DF910895DF93CF930F926A
:101AB000CDB7DEB7898381E469810E94410982E460
:101AC00061E041E00E9433070E943F0C0F90CF91EC
:101AD000DF910895DF93CF9300D0CDB7DEB79A831F
:101AE00089830AC0E981FA8180810E94550D89812C
:101AF0009A8101969A838983E981FA81808188237A
:101B000089F70F900F90CF91DF910895DF93CF93D6
:101B1000CDB7DEB781E00E94400DCF91DF910895EF
:101B2000DF93CF9300D00F92CDB7DEB78A836B835C
:101B30008A81833048F48A81882331F08B81813116
:101B400018F48B81882311F480E889838A8181309D
:101B500021F48B818158898306C08A81823019F4EF
:101B60008B818154898389810E94400D0F900F9051
:101B70000F90CF91DF910895DF93CF9300D0CDB731
:101B8000DEB789836A8389816A8141E00E944F06BA
:101B90000F900F90CF91DF910895DF93CF9300D0F6
:101BA000CDB7DEB789836A8389816A8141E00E946B
:101BB00033070F900F90CF91DF910895DF93CF936C
:101BC00000D0CDB7DEB789836A8389816A8140E01E
:101BD0000E9433070F900F90CF91DF910895DF930C
:101BE000CF9300D0CDB7DEB789836A8389816A81BC
:101BF0000E94C3080F900F90CF91DF910895DF935B
:101C0000CF9300D0CDB7DEB789836A8389816A819B
:101C10000E9417080F900F90CF91DF910895DF93E6
:101C2000CF93CDB7DEB7A7E3B0E0E7E3F0E0808184
:101C3000806B8C93ADE2B0E0EDE2F0E080818165F5
:101C40008C93CF91DF910895DF93CF93CDB7DEB71B
:101C5000A7E3B0E0E7E3F0E0808180648C93ADE23D
:101C6000B0E0EDE2F0E0808180648C93CF91DF9171
:101C70000895DF93CF930F92CDB7DEB78983EFE25C
:101C8000F0E089818083EEE2F0E08081881F882780
:101C9000881F882F90E090700097A9F3EFE2F0E0A2
:101CA00080810F90CF91DF910895DF93CF93CDB7CF
:101CB000DEB784E460E041E00E944F0684E461E026
:101CC00041E00E944F0684E462E041E00E944F063A
:101CD00084E463E041E00E944F0684E464E040E075
:101CE0000E944F0684E465E040E00E944F0684E4D1
:101CF00066E040E00E944F0684E467E040E00E9416
:101D00004F0684E464E041E00E94290A84E465E02F
:101D100041E00E94290A84E466E041E00E94290A29
:101D200084E467E041E00E94290ACF91DF910895A1
:101D3000DF93CF93CDB7DEB7A7970FB6F894DEBF8A
:101D40000FBECDBFCE0143969CA38BA3E1E9F2E089
:101D5000FEA3EDA3F0E1FFA3EDA1FEA100808DA104
:101D60009EA101969EA38DA3EBA1FCA100828BA155
:101D70009CA101969CA38BA39FA191509FA3EFA12F
:101D8000EE2351F78FEF8F871A8AB6C084E460E0A4
:101D900041E00E94330784E461E041E00E943307A0
:101DA00084E462E041E00E94330784E463E041E0C0
:101DB0000E94330780E090E0A0EAB1E48B879C8723
:101DC000AD87BE876B857C858D859E8520E030E064
:101DD0004AEF54E40E941F02DC01CB018F839887F5
:101DE000A987BA876F81788589859A8520E030E058
:101DF00040E85FE30E94250488232CF481E090E012
:101E00009E838D833FC06F81788589859A8520E088
:101E10003FEF4FE757E40E94C50318164CF56B855A
:101E20007C858D859E8520E030E040E251E40E9473
:101E30001F02DC01CB01BC01CD010E944900DC0185
:101E4000CB019E838D830FC088EC90E09C838B83B5
:101E50008B819C810197F1F79C838B838D819E817F
:101E600001979E838D838D819E81009769F714C0B1
:101E70006F81788589859A850E944900DC01CB01B4
:101E80009E838D838D819E819A83898389819A81A6
:101E90000197F1F79A83898384E46A8940E00E947C
:101EA0003307198A23C08989982F9C5F84E4692F9E
:101EB0000E941708888B88898823A9F48A89282F8B
:101EC00030E08989482F50E0220F331F220F331F43
:101ED000CE010196820F931F840F951FFC0172960D
:101EE00080818F8706C089898F5F898B898984303B
:101EF000D0F28A898F5F8A8B8A89843008F446CF32
:101F00008F85A7960FB6F894DEBF0FBECDBFCF91D9
:101F1000DF9108950F931F93DF93CF93CDB7DEB773
:101F2000C250D1400FB6F894DEBF0FBECDBF0E94A5
:101F3000D31E0E94EC1E8091A5028093A8028FEF11
:101F400080938C02FE01E250FF4F10828091A40228
:101F5000813009F0A7C20E94DB2B1092A3021092DD
:101F6000A2021092A4021092A7028FEF80938C021B
:101F700083E461E00E94DE0D83E460E00E94DE0DF8
:101F80000E94860D80E690E00E946A0DFE01E750F7
:101F9000FF4F80E090E0AAE7B4E480839183A283BE
:101FA000B3838E010B501F4FFE01E750FF4F60813E
:101FB00071818281938120E030E04AEF54E40E94F5
:101FC0001F02DC01CB01F80180839183A283B383DC
:101FD000FE01EB50FF4F608171818281938120E08F
:101FE00030E040E85FE30E942504882344F4FE01CA
:101FF000ED50FF4F81E090E09183808364C0FE014B
:10200000EB50FF4F608171818281938120E03FEF2F
:102010004FE757E40E94C50318160CF043C0FE01B9
:10202000E750FF4F608171818281938120E030E031
:1020300040E251E40E941F02DC01CB018E010D50F1
:102040001F4FBC01CD010E944900DC01CB01F8010A
:10205000918380831FC0FE01EF50FF4F88EC90E01A
:1020600091838083FE01EF50FF4F80819181019722
:10207000F1F7FE01EF50FF4F91838083DE01AD50F9
:10208000BF4FFE01ED50FF4F808191810197119666
:102090009C938E93FE01ED50FF4F808191810097BC
:1020A000D1F600C28E010D501F4FFE01EB50FF4FC5
:1020B00060817181828193810E944900DC01CB01A2
:1020C000F80191838083DE01A151BF4FFE01ED50E5
:1020D000FF4F8081918111969C938E93FE01E15177
:1020E000FF4F808191810197F1F7FE01E151FF4F90
:1020F00091838083D7C18091A802813009F0D1C03B
:102100000E94860D80E790E00E946A0D82E061E007
:102110000E94900D8EE790E00E946A0D83E462E0D9
:102120000E94CD0DFE01E551FF4F80E090E4ACE947
:10213000B6E480839183A283B3838E0109511F4F3C
:10214000FE01E551FF4F608171818281938120E022
:1021500030E04AEF54E40E941F02DC01CB01F80199
:1021600080839183A283B383FE01E951FF4F608195
:1021700071818281938120E030E040E85FE30E943A
:102180002504882344F4FE01EB51FF4F81E090E0E9
:102190009183808364C0FE01E951FF4F60817181AA
:1021A0008281938120E03FEF4FE757E40E94C5030F
:1021B00018160CF043C0FE01E551FF4F608171819C
:1021C0008281938120E030E040E251E40E941F02CE
:1021D000DC01CB018E010B511F4FBC01CD010E94D0
:1021E0004900DC01CB01F801918380831FC0FE010F
:1021F000ED51FF4F88EC90E091838083FE01ED511B
:10220000FF4F808191810197F1F7FE01ED51FF4F62
:1022100091838083DE01AB51BF4FFE01EB51FF4F35
:1022200080819181019711969C938E93FE01EB51D1
:10223000FF4F808191810097D1F627C08E010B510D
:102240001F4FFE01E951FF4F6081718182819381AF
:102250000E944900DC01CB01F80191838083DE01FB
:10226000AF51BF4FFE01EB51FF4F808191818D93A4
:102270009C93FE01EF51FF4F808191810197F1F70F
:10228000FE01EF51FF4F91838083FE01E250FF4F2B
:1022900010821092A80283E462E00E94DE0D109288
:1022A000A5020E94860D8EE890E00E946A0D82E0F1
:1022B00061E00E94900D8CE990E00E946A0D04C0DC
:1022C0000E94980E80938C0280918C028F3FC1F304
:1022D00080918C02803309F4C3C080918C028133D9
:1022E00009F4BEC00E94860D8CEA90E00E946A0D3F
:1022F0008FEF80938C02FE01E352FF4F80E090E06D
:10230000AAE7B4E480839183A283B3838E0107524A
:102310001F4FFE01E352FF4F6081718182819381E3
:1023200020E030E04AEF54E40E941F02DC01CB01C0
:10233000F80180839183A283B383FE01E752FF4FAC
:10234000608171818281938120E030E040E85FE329
:102350000E942504882344F4FE01E952FF4F81E0E6
:1023600090E09183808364C0FE01E752FF4F60815B
:1023700071818281938120E03FEF4FE757E40E9413
:10238000C50318160CF043C0FE01E352FF4F6081F5
:1023900071818281938120E030E040E251E40E942B
:1023A0001F02DC01CB018E0109521F4FBC01CD0180
:1023B0000E944900DC01CB01F801918380831FC09A
:1023C000FE01EB52FF4F88EC90E091838083FE0189
:1023D000EB52FF4F808191810197F1F7FE01EB52A3
:1023E000FF4F91838083DE01A952BF4FFE01E95266
:1023F000FF4F80819181019711969C938E93FE01EE
:10240000E952FF4F808191810097D1F64BC08E0138
:1024100009521F4FFE01E752FF4F60817181828197
:1024200093810E944900DC01CB01F80191838083F4
:10243000DE01AD52BF4FFE01E952FF4F8081918115
:1024400011969C938E93FE01ED52FF4F80819181F6
:102450000197F1F7FE01ED52FF4F9183808322C077
:1024600080918C02282F30E0CF5FDE4F39832883A4
:10247000C150D140CF5FDE4F88819981C150D1409A
:102480008033910551F0CF5FDE4FE881F981C15073
:10249000D140E133F10521F005C00E941B2302C0A9
:1024A0000E9419268091A702882309F424CEFE01F8
:1024B000E350FF4F81E080830C94AE1E8FEF80933A
:1024C0008C02FE01E350FF4F8081282F30E0C15085
:1024D000DF4F39832883CF5FD040C150DF4F8881E1
:1024E0009981CF5FD0408730910511F40C944F1A39
:1024F000C150DF4FE881F981CF5FD040E830F1056E
:102500000CF03FC0C150DF4F28813981CF5FD040F0
:102510002330310509F48EC7C150DF4F888199817E
:10252000CF5FD04084309105B4F4C150DF4FE881D3
:10253000F981CF5FD040E130F10509F46BC0C150A3
:10254000DF4F28813981CF5FD0402230310509F437
:1025500035C20C94AE1EC150DF4F88819981CF5F88
:10256000D0408530910509F47DC7C150DF4FE88127
:10257000F981CF5FD040E630F1050CF07FC70C94B5
:10258000261AC150DF4F28813981CF5FD0402A30D1
:10259000310509F49CC7C150DF4F88819981CF5F15
:1025A000D0408B309105B4F4C150DF4FE881F98100
:1025B000CF5FD040E830F10509F488C5C150DF4F46
:1025C00028813981CF5FD0402930310509F473C7A4
:1025D0000C94AE1EC150DF4F88819981CF5FD040EF
:1025E0008C30910509F45EC5C150DF4FE881F98157
:1025F000CF5FD040EC30F1050CF4A0C3C150DF4FE9
:1026000028813981CF5FD0402D30310509F454C580
:102610000C94AE1E0E94860D89EB90E00E946A0D1C
:102620008091A702813061F482EC90E00E946A0DF3
:1026300082E061E00E94900D8BEC90E00E946A0DB8
:102640008091A7020E94762B80938C02FE01E153B9
:10265000FF4F80E090E0A8ECB2E480839183A283F6
:10266000B3838E0105531F4FFE01E153FF4F60817D
:1026700071818281938120E030E04AEF54E40E942E
:102680001F02DC01CB01F80180839183A283B38315
:10269000FE01E553FF4F608171818281938120E0CB
:1026A00030E040E85FE30E942504882344F4FE0103
:1026B000E753FF4F81E090E09183808364C0FE0187
:1026C000E553FF4F608171818281938120E03FEF6C
:1026D0004FE757E40E94C50318160CF043C0FE01F3
:1026E000E153FF4F608171818281938120E030E06E
:1026F00040E251E40E941F02DC01CB018E0107532E
:102700001F4FBC01CD010E944900DC01CB01F80143
:10271000918380831FC0FE01E953FF4F88EC90E056
:1027200091838083FE01E953FF4F8081918101975E
:10273000F1F7FE01E953FF4F91838083DE01A75338
:10274000BF4FFE01E753FF4F8081918101971196A2
:102750009C938E93FE01E753FF4F808191810097F8
:10276000D1F628C08E0107531F4FFE01E553FF4FDE
:1027700060817181828193810E944900DC01CB01DB
:10278000F80191838083DE01AB53BF4FFE01E75315
:10279000FF4F8081918111969C938E93FE01EB53A4
:1027A000FF4F808191810197F1F7FE01EB53FF4FBD
:1027B0009183808380918C02813331F4FE01E35058
:1027C000FF4F82E08083E9C080918C02823351F414
:1027D0008091A702813031F4FE01E350FF4F8BE07E
:1027E0008083DBC080918C02833351F48091A702F7
:1027F000813031F4FE01E350FF4F88E08083CDC08B
:1028000080918C02843351F48091A702813031F49D
:10281000FE01E350FF4F87E08083BFC080918C02B0
:102820008F3F09F4BAC00E94860D8CED90E00E94A3
:102830006A0DFE01EF53FF4F80E090E0AAEFB3E492
:1028400080839183A283B3838E0103541F4FFE01C3
:10285000EF53FF4F608171818281938120E030E0EE
:102860004AEF54E40E941F02DC01CB01F80180838F
:102870009183A283B383FE01E354FF4F6081718192
:102880008281938120E030E040E85FE30E942504EC
:10289000882344F4FE01E554FF4F81E090E09183EA
:1028A000808364C0FE01E354FF4F608171818281A7
:1028B000938120E03FEF4FE757E40E94C5031816CD
:1028C0000CF043C0FE01EF53FF4F608171818281A4
:1028D000938120E030E040E251E40E941F02DC01DD
:1028E000CB018E0105541F4FBC01CD010E94490050
:1028F000DC01CB01F801918380831FC0FE01E75406
:10290000FF4F88EC90E091838083FE01E754FF4FF6
:10291000808191810197F1F7FE01E754FF4F918388
:102920008083DE01A554BF4FFE01E554FF4F808137
:102930009181019711969C938E93FE01E554FF4F70
:10294000808191810097D1F628C08E0105541F4FD8
:10295000FE01E354FF4F60817181828193810E9467
:102960004900DC01CB01F80191838083DE01A95489
:10297000BF4FFE01E554FF4F8081918111969C93DA
:102980008E93FE01E954FF4F808191810197F1F709
:10299000FE01E954FF4F9183808380918C02813343
:1029A00030F080918C02853310F40C94AE1E80912F
:1029B000A402882309F42ECE0C94AE1E0E94860D2C
:1029C00088EE90E00E946A0D82E061E00E94900D26
:1029D00088EF90E00E946A0D8091A7020E94762BFA
:1029E00080938C02FE01ED54FF4F80E090E0A8EC54
:1029F000B2E480839183A283B3838E0101551F4F7C
:102A0000FE01ED54FF4F608171818281938120E04E
:102A100030E04AEF54E40E941F02DC01CB01F801D0
:102A200080839183A283B383FE01E155FF4F6081D0
:102A300071818281938120E030E040E85FE30E9471
:102A40002504882344F4FE01E355FF4F81E090E024
:102A50009183808364C0FE01E155FF4F60817181E5
:102A60008281938120E03FEF4FE757E40E94C50346
:102A700018160CF043C0FE01ED54FF4F60817181C8
:102A80008281938120E030E040E251E40E941F0205
:102A9000DC01CB018E0103551F4FBC01CD010E940B
:102AA0004900DC01CB01F801918380831FC0FE0146
:102AB000E555FF4F88EC90E091838083FE01E5555A
:102AC000FF4F808191810197F1F7FE01E555FF4F9E
:102AD00091838083DE01A355BF4FFE01E355FF4F75
:102AE00080819181019711969C938E93FE01E3550D
:102AF000FF4F808191810097D1F628C08E01035548
:102B00001F4FFE01E155FF4F6081718182819381EA
:102B10000E944900DC01CB01F80191838083DE0132
:102B2000A755BF4FFE01E355FF4F8081918111965C
:102B30009C938E93FE01E755FF4F80819181019711
:102B4000F1F7FE01E755FF4F9183808380918C025E
:102B5000813331F4FE01E350FF4F83E08083DDC019
:102B600080918C02823331F4FE01E350FF4F84E008
:102B70008083D3C080918C02833331F4FE01E35013
:102B8000FF4F85E08083C9C080918C02843331F48B
:102B9000FE01E350FF4F86E08083BFC080918C022E
:102BA0008F3F09F4BAC00E94860D8CED90E00E9420
:102BB0006A0DFE01EB55FF4F80E090E0AAEFB3E411
:102BC00080839183A283B3838E010F551F4FFE0133
:102BD000EB55FF4F608171818281938120E030E06D
:102BE0004AEF54E40E941F02DC01CB01F80180830C
:102BF0009183A283B383FE01EF55FF4F6081718102
:102C00008281938120E030E040E85FE30E94250468
:102C1000882344F4FE01E156FF4F81E090E0918368
:102C2000808364C0FE01EF55FF4F60817181828116
:102C3000938120E03FEF4FE757E40E94C503181649
:102C40000CF043C0FE01EB55FF4F60817181828122
:102C5000938120E030E040E251E40E941F02DC0159
:102C6000CB018E0101561F4FBC01CD010E944900CE
:102C7000DC01CB01F801918380831FC0FE01E35684
:102C8000FF4F88EC90E091838083FE01E356FF4F75
:102C9000808191810197F1F7FE01E356FF4F918307
:102CA0008083DE01A156BF4FFE01E156FF4F8081B8
:102CB0009181019711969C938E93FE01E156FF4FEF
:102CC000808191810097D1F628C08E0101561F4F57
:102CD000FE01EF55FF4F60817181828193810E94D7
:102CE0004900DC01CB01F80191838083DE01A55608
:102CF000BF4FFE01E156FF4F8081918111969C9359
:102D00008E93FE01E556FF4F808191810197F1F787
:102D1000FE01E556FF4F9183808380918C028133C1
:102D200030F080918C02853310F40C94AE1E8091AB
:102D3000A402882309F442CE0C94AE1E0E94860D94
:102D400088E091E00E946A0D82E061E00E94900DAF
:102D500089E191E00E946A0D8091A7020E94762B82
:102D600080938C02FE01E956FF4F80E090E0A8ECD2
:102D7000B2E480839183A283B3838E010D561F4FEB
:102D8000FE01E956FF4F608171818281938120E0CD
:102D900030E04AEF54E40E941F02DC01CB01F8014D
:102DA00080839183A283B383FE01ED56FF4F608140
:102DB00071818281938120E030E040E85FE30E94EE
:102DC0002504882344F4FE01EF56FF4F81E090E094
:102DD0009183808364C0FE01ED56FF4F6081718155
:102DE0008281938120E03FEF4FE757E40E94C503C3
:102DF00018160CF043C0FE01E956FF4F6081718147
:102E00008281938120E030E040E251E40E941F0281
:102E1000DC01CB018E010F561F4FBC01CD010E947A
:102E20004900DC01CB01F801918380831FC0FE01C2
:102E3000E157FF4F88EC90E091838083FE01E157DA
:102E4000FF4F808191810197F1F7FE01E157FF4F1C
:102E500091838083DE01AF56BF4FFE01EF56FF4FD7
:102E600080819181019711969C938E93FE01EF567C
:102E7000FF4F808191810097D1F628C08E010F56B7
:102E80001F4FFE01ED56FF4F60817181828193815A
:102E90000E944900DC01CB01F80191838083DE01AF
:102EA000A357BF4FFE01EF56FF4F808191811196CE
:102EB0009C938E93FE01E357FF4F80819181019790
:102EC000F1F7FE01E357FF4F9183808380918C02DD
:102ED000813331F4FE01E350FF4F8CE08083D3C097
:102EE00080918C02823331F4FE01E350FF4F8DE07C
:102EF0008083C9C080918C02803331F4FE01E3509D
:102F0000FF4F81E08083BFC080918C028F3F09F426
:102F1000BAC00E94860D8CED90E00E946A0DFE0101
:102F2000E757FF4F80E090E0AAEFB3E480839183FE
:102F3000A283B3838E010B571F4FFE01E757FF4F4C
:102F4000608171818281938120E030E04AEF54E416
:102F50000E941F02DC01CB01F80180839183A283D0
:102F6000B383FE01EB57FF4F6081718182819381B2
:102F700020E030E040E85FE30E942504882344F429
:102F8000FE01ED57FF4F81E090E09183808364C0A4
:102F9000FE01EB57FF4F608171818281938120E0B8
:102FA0003FEF4FE757E40E94C50318160CF043C0EB
:102FB000FE01E757FF4F608171818281938120E09C
:102FC00030E040E251E40E941F02DC01CB018E019F
:102FD0000D571F4FBC01CD010E944900DC01CB0100
:102FE000F801918380831FC0FE01EF57FF4F88ECEB
:102FF00090E091838083FE01EF57FF4F80819181A4
:103000000197F1F7FE01EF57FF4F91838083DE01B7
:10301000AD57BF4FFE01ED57FF4F80819181019762
:1030200011969C938E93FE01ED57FF4F8081918105
:103030000097D1F628C08E010D571F4FFE01EB57A8
:10304000FF4F60817181828193810E944900DC0180
:10305000CB01F80191838083DE01A158BF4FFE01AF
:10306000ED57FF4F8081918111969C938E93FE01C5
:10307000E158FF4F808191810197F1F7FE01E158FE
:10308000FF4F9183808380918C02803328F0809160
:103090008C02833308F462C68091A402882309F469
:1030A0004DCE5CC60E94860D0E947F1FFE01E3503C
:1030B000FF4F81E0808352C60E94860D0E944D2101
:1030C000FE01E350FF4F81E0808348C60E94860DD9
:1030D0008BE291E00E946A0D82E061E00E94900D17
:1030E0008EE391E00E946A0D8091A7020E94762BE8
:1030F00080938C02FE01E558FF4F80E090E0A8EC41
:10310000B2E480839183A283B3838E0109581F4F59
:10311000FE01E558FF4F608171818281938120E03B
:1031200030E04AEF54E40E941F02DC01CB01F801B9
:1031300080839183A283B383FE01E958FF4F6081AE
:1031400071818281938120E030E040E85FE30E945A
:103150002504882344F4FE01EB58FF4F81E090E002
:103160009183808364C0FE01E958FF4F60817181C3
:103170008281938120E03FEF4FE757E40E94C5032F
:1031800018160CF043C0FE01E558FF4F60817181B5
:103190008281938120E030E040E251E40E941F02EE
:1031A000DC01CB018E010B581F4FBC01CD010E94E9
:1031B0004900DC01CB01F801918380831FC0FE012F
:1031C000ED58FF4F88EC90E091838083FE01ED582D
:1031D000FF4F808191810197F1F7FE01ED58FF4F7C
:1031E00091838083DE01AB58BF4FFE01EB58FF4F48
:1031F00080819181019711969C938E93FE01EB58EB
:10320000FF4F808191810097D1F628C08E010B5825
:103210001F4FFE01E958FF4F6081718182819381C8
:103220000E944900DC01CB01F80191838083DE011B
:10323000AF58BF4FFE01EB58FF4F8081918111962F
:103240009C938E93FE01EF58FF4F808191810197EF
:10325000F1F7FE01EF58FF4F9183808380918C023C
:10326000813331F4FE01E350FF4F8AE08083D3C005
:1032700080918C02823331F4FE01E350FF4F89E0EC
:103280008083C9C080918C02803331F4FE01E35009
:10329000FF4F81E08083BFC080918C028F3F09F493
:1032A000BAC00E94860D8CED90E00E946A0DFE016E
:1032B000E359FF4F80E090E0AAEFB3E4808391836D
:1032C000A283B3838E0107591F4FFE01E359FF4FBD
:1032D000608171818281938120E030E04AEF54E483
:1032E0000E941F02DC01CB01F80180839183A2833D
:1032F000B383FE01E759FF4F608171818281938121
:1033000020E030E040E85FE30E942504882344F495
:10331000FE01E959FF4F81E090E09183808364C012
:10332000FE01E759FF4F608171818281938120E026
:103330003FEF4FE757E40E94C50318160CF043C057
:10334000FE01E359FF4F608171818281938120E00A
:1033500030E040E251E40E941F02DC01CB018E010B
:1033600009591F4FBC01CD010E944900DC01CB016E
:10337000F801918380831FC0FE01EB59FF4F88EC59
:1033800090E091838083FE01EB59FF4F8081918112
:103390000197F1F7FE01EB59FF4F91838083DE0126
:1033A000A959BF4FFE01E959FF4F808191810197D3
:1033B00011969C938E93FE01E959FF4F8081918174
:1033C0000097D1F628C08E0109591F4FFE01E75919
:1033D000FF4F60817181828193810E944900DC01ED
:1033E000CB01F80191838083DE01AD59BF4FFE010F
:1033F000E959FF4F8081918111969C938E93FE0134
:10340000ED59FF4F808191810197F1F7FE01ED5950
:10341000FF4F9183808380918C02803328F08091CC
:103420008C02833308F49AC48091A402882309F49F
:103430004DCE94C49091A70283E0692F0E94512938
:10344000FE01E350FF4F81E0808388C49091A70282
:1034500084E0692F0E945129FE01E350FF4F81E073
:1034600080837CC49091A70285E0692F0E94512936
:10347000FE01E350FF4F81E0808370C49091A7026A
:1034800086E0692F0E9451298091A702823009F0BD
:1034900065C4FE01E350FF4F81E080835FC49091DB
:1034A000A70287E0692F0E945129FE01E350FF4FD8
:1034B00081E0808353C49091A70289E0692F0E9424
:1034C0005129FE01E350FF4F88E0808347C41092EA
:1034D000A60236C48FEF80938C020E94860D8FE483
:1034E00091E00E946A0D8FED0E94550D83E40E94C9
:1034F000550D81E06BE00E94900DFE01E15AFF4FF7
:1035000080E090E0A8E4B3E480839183A283B38356
:103510008E01055A1F4FFE01E15AFF4F60817181F4
:103520008281938120E030E04AEF54E40E941F0240
:10353000DC01CB01F80180839183A283B383FE0178
:10354000E55AFF4F608171818281938120E030E0F4
:1035500040E85FE30E942504882344F4FE01E75A13
:10356000FF4F81E090E09183808364C0FE01E55AC3
:10357000FF4F608171818281938120E03FEF4FE7AF
:1035800057E40E94C50318160CF043C0FE01E15A2F
:10359000FF4F608171818281938120E030E040E2C1
:1035A00051E40E941F02DC01CB018E01075A1F4F1C
:1035B000BC01CD010E944900DC01CB01F8019183DF
:1035C00080831FC0FE01E95AFF4F88EC90E0918391
:1035D0008083FE01E95AFF4F808191810197F1F7C5
:1035E000FE01E95AFF4F91838083DE01A75ABF4F46
:1035F000FE01E75AFF4F80819181019711969C93BC
:103600008E93FE01E75AFF4F808191810097D1F69A
:1036100027C08E01075A1F4FFE01E55AFF4F6081F8
:103620007181828193810E944900DC01CB01F80104
:1036300091838083DE01AB5ABF4FFE01E75AFF4FF3
:10364000808191818D939C93FE01EB5AFF4F808185
:1036500091810197F1F7FE01EB5AFF4F918380832F
:103660008091A7020E94762B80938C02FE01EF5A74
:10367000FF4F80E090E0AAE7B3E480839183A283C8
:10368000B3838E01035B1F4FFE01EF5AFF4F608132
:1036900071818281938120E030E04AEF54E40E94FE
:1036A0001F02DC01CB01F80180839183A283B383E5
:1036B000FE01E35BFF4F608171818281938120E095
:1036C00030E040E85FE30E942504882344F4FE01D3
:1036D000E55BFF4F81E090E09183808364C0FE0151
:1036E000E35BFF4F608171818281938120E03FEF36
:1036F0004FE757E40E94C50318160CF043C0FE01C3
:10370000EF5AFF4F608171818281938120E030E028
:1037100040E251E40E941F02DC01CB018E01055BF7
:103720001F4FBC01CD010E944900DC01CB01F80113
:10373000918380831FC0FE01E75BFF4F88EC90E020
:1037400091838083FE01E75BFF4F80819181019728
:10375000F1F7FE01E75BFF4F91838083DE01A55BFC
:10376000BF4FFE01E55BFF4F80819181019711966C
:103770009C938E93FE01E55BFF4F808191810097C2
:10378000D1F628C08E01055B1F4FFE01E35BFF4FA2
:1037900060817181828193810E944900DC01CB01AB
:1037A000F80191838083DE01A95BBF4FFE01E55BD9
:1037B000FF4F8081918111969C938E93FE01E95B6E
:1037C000FF4F808191810197F1F7FE01E95BFF4F87
:1037D000918380838091A402813009F4BAC28091E0
:1037E0008C02803328F080918C028A3308F48CC0DC
:1037F0000E94860D8CED90E00E946A0DFE01ED5B4B
:10380000FF4F80E090E0AAEFB3E480839183A2832E
:10381000B3838E01015C1F4FFE01ED5BFF4F6081A2
:1038200071818281938120E030E04AEF54E40E946C
:103830001F02DC01CB01F80180839183A283B38353
:10384000FE01FF96608171818281938120E030E0EA
:1038500040E85FE30E94250488232CF481E090E097
:103860009EAF8DAF46C0FE01FF966081718182815F
:10387000938120E03FEF4FE757E40E94C5031816FD
:1038800064F5FE01ED5BFF4F608171818281938160
:1038900020E030E040E251E40E941F02DC01CB0155
:1038A000BC01CD010E944900DC01CB019EAF8DAF70
:1038B0000FC088EC90E09CAF8BAF8BAD9CAD0197B7
:1038C000F1F79CAF8BAF8DAD9EAD01979EAF8DAFE5
:1038D0008DAD9EAD009769F733C2FE01FF96608102
:1038E0007181828193810E944900DC01CB019EAFEE
:1038F0008DAF8DAD9EAD9AAF89AF89AD9AAD019771
:10390000F1F79AAF89AF1CC280918C020E94550DCD
:1039100080918C02805380938B028FEF80938C0276
:103920008091A7020E94762B80938C0280E090E029
:10393000AAE7B3E48DAB9EABAFABB8AF6DA97EA9E0
:103940008FA998AD20E030E04AEF54E40E941F02B6
:10395000DC01CB0189AB9AABABABBCAB69A97AA953
:103960008BA99CA920E030E040E85FE30E94250499
:1039700088232CF481E090E098AB8FA73FC069A921
:103980007AA98BA99CA920E03FEF4FE757E40E945A
:10399000C50318164CF56DA97EA98FA998AD20E036
:1039A00030E040E251E40E941F02DC01CB01BC0187
:1039B000CD010E944900DC01CB0198AB8FA70FC05D
:1039C00088EC90E09EA78DA78DA59EA50197F1F7A5
:1039D0009EA78DA78FA598A9019798AB8FA78FA5B4
:1039E00098A9009769F714C069A97AA98BA99CA91D
:1039F0000E944900DC01CB0198AB8FA78FA598A945
:103A00009CA78BA78BA59CA50197F1F79CA78BA7DB
:103A10008091A402813009F49CC180918C02803392
:103A200028F080918C028A3308F479C00E94860DB8
:103A30008CED90E00E946A0D80E090E0AAEFB3E484
:103A40008FA398A7A9A7BAA76FA178A589A59AA5BA
:103A500020E030E04AEF54E40E941F02DC01CB0179
:103A60008BA39CA3ADA3BEA36BA17CA18DA19EA1A2
:103A700020E030E040E85FE30E94250488232CF436
:103A800081E090E09AA389A33FC06BA17CA18DA1A6
:103A90009EA120E03FEF4FE757E40E94C5031816B0
:103AA0004CF56FA178A589A59AA520E030E040E209
:103AB00051E40E941F02DC01CB01BC01CD010E9438
:103AC0004900DC01CB019AA389A30FC088EC90E0E8
:103AD00098A38F8F8F8D98A10197F1F798A38F8F5F
:103AE00089A19AA101979AA389A389A19AA1009774
:103AF00069F726C16BA17CA18DA19EA10E944900FE
:103B0000DC01CB019AA389A389A19AA19E8F8D8FF5
:103B10008D8D9E8D0197F1F79E8F8D8F11C18091B4
:103B20008C020E94550D80918C02805380938A02F2
:103B30008FEF80938C0280918B02882F90E09C0104
:103B4000220F331FC901880F991F880F991F820FF9
:103B5000931F982F80918A02890F8093A60280E498
:103B60000E94390E80E090E0A8E4B3E4898F9A8F38
:103B7000AB8FBC8F698D7A8D8B8D9C8D20E030E072
:103B80004AEF54E40E941F02DC01CB018D8B9E8B17
:103B9000AF8BB88F6D897E898F89988D20E030E05A
:103BA00040E85FE30E94250488232CF481E090E044
:103BB0009C8B8B8B3FC06D897E898F89988D20E08F
:103BC0003FEF4FE757E40E94C50318164CF5698D87
:103BD0007A8D8B8D9C8D20E030E040E251E40E9494
:103BE0001F02DC01CB01BC01CD010E944900DC01B8
:103BF000CB019C8B8B8B0FC088EC90E09A8B898BD0
:103C000089899A890197F1F79A8B898B8B899C898D
:103C100001979C8B8B8B8B899C89009769F714C0CB
:103C20006D897E898F89988D0E944900DC01CB01C6
:103C30009C8B8B8B8B899C89988B8F878F859889A0
:103C40000197F1F7988B8F878091A6020E94390E19
:103C50000E94860D8DE591E00E946A0D80E090E063
:103C6000AAEFB3E48B879C87AD87BE876B857C8585
:103C70008D859E8520E030E04AEF54E40E941F02CB
:103C8000DC01CB018F839887A987BA876F817885FC
:103C900089859A8520E030E040E85FE30E942504B2
:103CA00088232CF481E090E09E838D833FC06F8158
:103CB000788589859A8520E03FEF4FE757E40E9499
:103CC000C50318164CF56B857C858D859E8520E097
:103CD00030E040E251E40E941F02DC01CB01BC0154
:103CE000CD010E944900DC01CB019E838D830FC072
:103CF00088EC90E09C838B838B819C810197F1F70A
:103D00009C838B838D819E8101979E838D838D8182
:103D10009E81009769F714C06F81788589859A859F
:103D20000E944900DC01CB019E838D838D819E81A1
:103D30009A83898389819A810197F1F79A8389838C
:103D40008091A602882329F48091A402882309F493
:103D5000C1CBFE01E350FF4F88E080838091A40235
:103D6000813011F00C945E120C949F0F1F920F92F1
:103D70000FB60F9211248F939F93DF93CF93CDB7FC
:103D8000DEB78091A2029091A30201969093A302C4
:103D90008093A202CF91DF919F918F910F900FBEE0
:103DA0000F901F901895DF93CF93CDB7DEB783E4C4
:103DB00060E00E94BC0D83E461E00E94BC0D83E4DE
:103DC00062E00E94BC0D0E94750B0E94550E0E947D
:103DD0000F0ECF91DF910895DF93CF93CDB7DEB76C
:103DE0002E970FB6F894DEBF0FBECDBF8EE691E0E2
:103DF0000E946A0D82E061E00E94900D8FE791E0E1
:103E00000E946A0D80E090E0AAE7B4E48B879C876B
:103E1000AD87BE876B857C858D859E8520E030E0F3
:103E20004AEF54E40E941F02DC01CB018F83988784
:103E3000A987BA876F81788589859A8520E030E0E7
:103E400040E85FE30E94250488232CF481E090E0A1
:103E50009E838D833FC06F81788589859A8520E018
:103E60003FEF4FE757E40E94C50318164CF56B85EA
:103E70007C858D859E8520E030E040E251E40E9403
:103E80001F02DC01CB01BC01CD010E944900DC0115
:103E9000CB019E838D830FC088EC90E09C838B8345
:103EA0008B819C810197F1F79C838B838D819E810F
:103EB00001979E838D838D819E81009769F714C041
:103EC0006F81788589859A850E944900DC01CB0144
:103ED0009E838D838D819E819A83898389819A8136
:103EE0000197F1F79A8389830E94860D2E960FB66B
:103EF000F894DEBF0FBECDBFCF91DF910895DF9361
:103F0000CF93CDB7DEB7AA970FB6F894DEBF0FBE3A
:103F1000CDBF0E94860D8BE891E00E946A0D82E081
:103F200061E00E94900D8AE991E00E946A0D8FEF96
:103F300080938C021092AA021092AA020EC0809165
:103F4000AA02882F90E0FC01E555FD4F8FEF80839A
:103F50008091AA028F5F8093AA028091AA02843086
:103F600070F31092AA020FC18FEF80938C0204C0ED
:103F70000E94980E80938C0280918C028F3FC1F337
:103F80008091AA02282F30E080918C028053F901A1
:103F9000E555FD4F808380918C020E94550D80E095
:103FA00090E0A6E9B3E48FA398A7A9A7BAA76FA149
:103FB00078A589A59AA520E030E04AEF54E40E9454
:103FC0001F02DC01CB018BA39CA3ADA3BEA36BA1FD
:103FD0007CA18DA19EA120E030E040E85FE30E943B
:103FE000250488232CF481E090E09AA389A33FC0A4
:103FF0006BA17CA18DA19EA120E03FEF4FE757E48C
:104000000E94C50318164CF56FA178A589A59AA53D
:1040100020E030E040E251E40E941F02DC01CB01CD
:10402000BC01CD010E944900DC01CB019AA389A308
:104030000FC088EC90E098A38F8F8F8D98A1019787
:10404000F1F798A38F8F89A19AA101979AA389A3C9
:1040500089A19AA1009769F714C06BA17CA18DA1D9
:104060009EA10E944900DC01CB019AA389A389A1EA
:104070009AA19E8F8D8F8D8D9E8D0197F1F79E8FCA
:104080008D8F8091AA02982F945F82E0692F0E9401
:10409000900D8AE20E94550D80E090E0A8ECB2E419
:1040A000898F9A8FAB8FBC8F698D7A8D8B8D9C8D0C
:1040B00020E030E04AEF54E40E941F02DC01CB0113
:1040C0008D8B9E8BAF8BB88F6D897E898F89988DF4
:1040D00020E030E040E85FE30E94250488232CF4D0
:1040E00081E090E09C8B8B8B3FC06D897E898F89AE
:1040F000988D20E03FEF4FE757E40E94C503181664
:104100004CF5698D7A8D8B8D9C8D20E030E040E2FE
:1041100051E40E941F02DC01CB01BC01CD010E94D1
:104120004900DC01CB019C8B8B8B0FC088EC90E0AD
:104130009A8B898B89899A890197F1F79A8B898B58
:104140008B899C8901979C8B8B8B8B899C89009791
:1041500069F714C06D897E898F89988D0E94490006
:10416000DC01CB019C8B8B8B8B899C89988B8F87F7
:104170008F8598890197F1F7988B8F878091AA0294
:104180008F5F8093AA028091AA02843008F4ECCE5B
:104190000E94860D86EA91E00E946A0D80E090E020
:1041A000AAEFB3E48B879C87AD87BE876B857C8540
:1041B0008D859E8520E030E04AEF54E40E941F0286
:1041C000DC01CB018F839887A987BA876F817885B7
:1041D00089859A8520E030E040E85FE30E9425046D
:1041E00088232CF481E090E09E838D833FC06F8113
:1041F000788589859A8520E03FEF4FE757E40E9454
:10420000C50318164CF56B857C858D859E8520E051
:1042100030E040E251E40E941F02DC01CB01BC010E
:10422000CD010E944900DC01CB019E838D830FC02C
:1042300088EC90E09C838B838B819C810197F1F7C4
:104240009C838B838D819E8101979E838D838D813D
:104250009E81009769F714C06F81788589859A855A
:104260000E944900DC01CB019E838D838D819E815C
:104270009A83898389819A810197F1F79A83898347
:104280000E94860D1092A502AA960FB6F894DEBF82
:104290000FBECDBFCF91DF910895DF93CF93CDB700
:1042A000DEB7AA970FB6F894DEBF0FBECDBF0E944F
:1042B000860D81EB91E00E946A0D82E061E00E9430
:1042C000900D80EC91E00E946A0D8FEF80938C023C
:1042D0001092AA021092AA020EC08091AA02882F00
:1042E00090E0FC01E357FD4F8FEF80838091AA029D
:1042F0008F5F8093AA028091AA02843070F310929B
:10430000AA020FC18FEF80938C0204C00E94980E06
:1043100080938C0280918C028F3FC1F38091AA021E
:10432000282F30E080918C028053F901E357FD4F34
:10433000808380918C020E94550D80E090E0A6E978
:10434000B3E48FA398A7A9A7BAA76FA178A589A559
:104350009AA520E030E04AEF54E40E941F02DC01FD
:10436000CB018BA39CA3ADA3BEA36BA17CA18DA10C
:104370009EA120E030E040E85FE30E94250488230E
:104380002CF481E090E09AA389A33FC06BA17CA1AB
:104390008DA19EA120E03FEF4FE757E40E94C503A7
:1043A00018164CF56FA178A589A59AA520E030E0F4
:1043B00040E251E40E941F02DC01CB01BC01CD01AF
:1043C0000E944900DC01CB019AA389A30FC088ECAD
:1043D00090E098A38F8F8F8D98A10197F1F798A304
:1043E0008F8F89A19AA101979AA389A389A19AA1E4
:1043F000009769F714C06BA17CA18DA19EA10E94BA
:104400004900DC01CB019AA389A389A19AA19E8FBF
:104410008D8F8D8D9E8D0197F1F79E8F8D8F809161
:10442000AA02982F945F82E0692F0E94900D8AE281
:104430000E94550D80E090E0A8ECB2E4898F9A8F3D
:10444000AB8FBC8F698D7A8D8B8D9C8D20E030E099
:104450004AEF54E40E941F02DC01CB018D8B9E8B3E
:10446000AF8BB88F6D897E898F89988D20E030E081
:1044700040E85FE30E94250488232CF481E090E06B
:104480009C8B8B8B3FC06D897E898F89988D20E0B6
:104490003FEF4FE757E40E94C50318164CF5698DAE
:1044A0007A8D8B8D9C8D20E030E040E251E40E94BB
:1044B0001F02DC01CB01BC01CD010E944900DC01DF
:1044C000CB019C8B8B8B0FC088EC90E09A8B898BF7
:1044D00089899A890197F1F79A8B898B8B899C89B5
:1044E00001979C8B8B8B8B899C89009769F714C0F3
:1044F0006D897E898F89988D0E944900DC01CB01EE
:104500009C8B8B8B8B899C89988B8F878F859889C7
:104510000197F1F7988B8F878091AA028F5F809324
:10452000AA028091AA02843008F4ECCE0E94860D83
:1045300086EA91E00E946A0D80E090E0AAEFB3E481
:104540008B879C87AD87BE876B857C858D859E8597
:1045500020E030E04AEF54E40E941F02DC01CB016E
:104560008F839887A987BA876F81788589859A858F
:1045700020E030E040E85FE30E94250488232CF42B
:1045800081E090E09E838D833FC06F81788589852F
:104590009A8520E03FEF4FE757E40E94C5031816C5
:1045A0004CF56B857C858D859E8520E030E040E272
:1045B00051E40E941F02DC01CB01BC01CD010E942D
:1045C0004900DC01CB019E838D830FC088EC90E015
:1045D0009C838B838B819C810197F1F79C838B83D8
:1045E0008D819E8101979E838D838D819E81009711
:1045F00069F714C06F81788589859A850E94490082
:10460000DC01CB019E838D838D819E819A8389837A
:1046100089819A810197F1F79A8389830E94860D97
:104620001092A502AA960FB6F894DEBF0FBECDBFBA
:10463000CF91DF9108950F931F93DF93CF93CDB761
:10464000DEB7C654D0400FB6F894DEBF0FBECDBF64
:10465000DFC28FEF80938C020E94860D8CEC91E07C
:104660000E946A0D82E061E00E94900D87ED91E06A
:104670000E946A0DFE01ED5BFF4F80E090E0A8E430
:10468000B3E480839183A283B3838E01015C1F4FC7
:10469000FE01ED5BFF4F608171818281938120E09B
:1046A00030E04AEF54E40E941F02DC01CB01F80124
:1046B00080839183A283B383FE01FF966081718121
:1046C0008281938120E030E040E85FE30E9425048E
:1046D00088232CF481E090E09EAF8DAF46C0FE01B0
:1046E000FF96608171818281938120E03FEF4FE7E7
:1046F00057E40E94C503181664F5FE01ED5BFF4FF9
:10470000608171818281938120E030E040E251E458
:104710000E941F02DC01CB01BC01CD010E944900B7
:10472000DC01CB019EAF8DAF0FC088EC90E09CAF59
:104730008BAF8BAD9CAD0197F1F79CAF8BAF8DAD7F
:104740009EAD01979EAF8DAF8DAD9EAD009769F781
:1047500016C0FE01FF9660817181828193810E9463
:104760004900DC01CB019EAF8DAF8DAD9EAD9AAF00
:1047700089AF89AD9AAD0197F1F79AAF89AF1092E1
:10478000AA020EC10E94980E80938C0280918C0226
:104790008F3FC1F38091AA02282F30E080918C02D4
:1047A0008053F901E155FD4F808380918C020E9476
:1047B000550D80E090E0A6E9B3E48DAB9EABAFABC6
:1047C000B8AF6DA97EA98FA998AD20E030E04AEF7F
:1047D00054E40E941F02DC01CB0189AB9AABABAB66
:1047E000BCAB69A97AA98BA99CA920E030E040E87C
:1047F0005FE30E94250488232CF481E090E098ABCD
:104800008FA73FC069A97AA98BA99CA920E03FEF97
:104810004FE757E40E94C50318164CF56DA97EA911
:104820008FA998AD20E030E040E251E40E941F02E1
:10483000DC01CB01BC01CD010E944900DC01CB01B0
:1048400098AB8FA70FC088EC90E09EA78DA78DA591
:104850009EA50197F1F79EA78DA78FA598A901970F
:1048600098AB8FA78FA598A9009769F714C069A97D
:104870007AA98BA99CA90E944900DC01CB0198ABC5
:104880008FA78FA598A99CA78BA78BA59CA50197FF
:10489000F1F79CA78BA78091AA02982F945F82E0E2
:1048A000692F0E94900D8AE20E94550D80E090E0F1
:1048B000A8ECB2E48FA398A7A9A7BAA76FA178A57F
:1048C00089A59AA520E030E04AEF54E40E941F0237
:1048D000DC01CB018BA39CA3ADA3BEA36BA17CA1E8
:1048E0008DA19EA120E030E040E85FE30E94250416
:1048F00088232CF481E090E09AA389A33FC06BA1A8
:104900007CA18DA19EA120E03FEF4FE757E40E94DC
:10491000C50318164CF56FA178A589A59AA520E0C6
:1049200030E040E251E40E941F02DC01CB01BC01F7
:10493000CD010E944900DC01CB019AA389A30FC0DD
:1049400088EC90E098A38F8F8F8D98A10197F1F755
:1049500098A38F8F89A19AA101979AA389A389A16E
:104960009AA1009769F714C06BA17CA18DA19EA1AB
:104970000E944900DC01CB019AA389A389A19AA1D5
:104980009E8F8D8F8D8D9E8D0197F1F79E8F8D8FD0
:104990008091AA028F5F8093AA028FEF80938C028E
:1049A0008091AA02843008F4F1CE8FEA92E02BEADB
:1049B00032E0B90144E00E941729813009F08EC02D
:1049C00081E08093A7021092A9020E94860D83EED7
:1049D00091E00E946A0D82E061E00E94900D8CECF3
:1049E00091E00E946A0D80E090E0AAEFB3E4898F25
:1049F0009A8FAB8FBC8F698D7A8D8B8D9C8D20E0CB
:104A000030E04AEF54E40E941F02DC01CB018D8BA1
:104A10009E8BAF8BB88F6D897E898F89988D20E0B2
:104A200030E040E85FE30E94250488232CF481E015
:104A300090E09C8B8B8B3FC06D897E898F89988D90
:104A400020E03FEF4FE757E40E94C50318164CF5EE
:104A5000698D7A8D8B8D9C8D20E030E040E251E4B1
:104A60000E941F02DC01CB01BC01CD010E94490064
:104A7000DC01CB019C8B8B8B0FC088EC90E09A8B78
:104A8000898B89899A890197F1F79A8B898B8B8910
:104A90009C8901979C8B8B8B8B899C89009769F7EC
:104AA00014C06D897E898F89988D0E944900DC0130
:104AB000CB019C8B8B8B8B899C89988B8F878F8567
:104AC00098890197F1F7988B8F8783E460E00E94C3
:104AD000CD0D0E94A52B0E94860D9AC08091A9023F
:104AE0008F5F8093A9021092A7020E94860D8EEE1E
:104AF00091E00E946A0D82E061E00E94900D89EFD2
:104B000091E00E946A0D9091A90283E3891B0E94A3
:104B1000550D80E090E0AAE7B4E48B879C87AD87D1
:104B2000BE876B857C858D859E8520E030E04AEFD1
:104B300054E40E941F02DC01CB018F839887A98770
:104B4000BA876F81788589859A8520E030E040E8D2
:104B50005FE30E94250488232CF481E090E09E838B
:104B60008D833FC06F81788589859A8520E03FEFEE
:104B70004FE757E40E94C50318164CF56B857C85FA
:104B80008D859E8520E030E040E251E40E941F02C6
:104B9000DC01CB01BC01CD010E944900DC01CB014D
:104BA0009E838D830FC088EC90E09C838B838B81E8
:104BB0009C810197F1F79C838B838D819E81019766
:104BC0009E838D838D819E81009769F714C06F81CC
:104BD000788589859A850E944900DC01CB019E83F6
:104BE0008D838D819E819A83898389819A810197A2
:104BF000F1F79A8389830E94860D8091A902833000
:104C000038F081E08093A50281E08093A80205C07E
:104C10008091A702813009F01CCDCA5BDF4F0FB62F
:104C2000F894DEBF0FBECDBFCF91DF911F910F91E2
:104C300008950F931F93DF93CF93CDB7DEB7C6547C
:104C4000D0400FB6F894DEBF0FBECDBFDFC28FEFEE
:104C500080938C020E94860D85E092E00E946A0D8E
:104C600082E061E00E94900D80E192E00E946A0D76
:104C7000FE01ED5BFF4F80E090E0A8E4B3E48083A9
:104C80009183A283B3838E01015C1F4FFE01ED5B14
:104C9000FF4F608171818281938120E030E04AEF93
:104CA00054E40E941F02DC01CB01F8018083918350
:104CB000A283B383FE01FF9660817181828193811B
:104CC00020E030E040E85FE30E94250488232CF4D4
:104CD00081E090E09EAF8DAF46C0FE01FF966081FF
:104CE00071818281938120E03FEF4FE757E40E947A
:104CF000C503181664F5FE01ED5BFF4F60817181FD
:104D00008281938120E030E040E251E40E941F0262
:104D1000DC01CB01BC01CD010E944900DC01CB01CB
:104D20009EAF8DAF0FC088EC90E09CAF8BAF8BAD8A
:104D30009CAD0197F1F79CAF8BAF8DAD9EAD019708
:104D40009EAF8DAF8DAD9EAD009769F716C0FE0189
:104D5000FF9660817181828193810E944900DC010C
:104D6000CB019EAF8DAF8DAD9EAD9AAF89AF89ADB2
:104D70009AAD0197F1F79AAF89AF1092AA020EC1CE
:104D80000E94980E80938C0280918C028F3FC1F319
:104D90008091AA02282F30E080918C028053F90183
:104DA000E155FD4F808380918C020E94550D80E07B
:104DB00090E0A6E9B3E48DAB9EABAFABB8AF6DA905
:104DC0007EA98FA998AD20E030E04AEF54E40E941C
:104DD0001F02DC01CB0189AB9AABABABBCAB69A9C1
:104DE0007AA98BA99CA920E030E040E85FE30E940B
:104DF000250488232CF481E090E098AB8FA73FC076
:104E000069A97AA98BA99CA920E03FEF4FE757E455
:104E10000E94C50318164CF56DA97EA98FA998ADFF
:104E200020E030E040E251E40E941F02DC01CB01AF
:104E3000BC01CD010E944900DC01CB0198AB8FA7DA
:104E40000FC088EC90E09EA78DA78DA59EA5019729
:104E5000F1F79EA78DA78FA598A9019798AB8FA76B
:104E60008FA598A9009769F714C069A97AA98BA999
:104E70009CA90E944900DC01CB0198AB8FA78FA5AC
:104E800098A99CA78BA78BA59CA50197F1F79CA738
:104E90008BA78091AA02982F945F82E0692F0E94CD
:104EA000900D8AE20E94550D80E090E0A8ECB2E4FB
:104EB0008FA398A7A9A7BAA76FA178A589A59AA536
:104EC00020E030E04AEF54E40E941F02DC01CB01F5
:104ED0008BA39CA3ADA3BEA36BA17CA18DA19EA11E
:104EE00020E030E040E85FE30E94250488232CF4B2
:104EF00081E090E09AA389A33FC06BA17CA18DA122
:104F00009EA120E03FEF4FE757E40E94C50318162B
:104F10004CF56FA178A589A59AA520E030E040E284
:104F200051E40E941F02DC01CB01BC01CD010E94B3
:104F30004900DC01CB019AA389A30FC088EC90E063
:104F400098A38F8F8F8D98A10197F1F798A38F8FDA
:104F500089A19AA101979AA389A389A19AA10097EF
:104F600069F714C06BA17CA18DA19EA10E9449008C
:104F7000DC01CB019AA389A389A19AA19E8F8D8F71
:104F80008D8D9E8D0197F1F79E8F8D8F8091AA0256
:104F90008F5F8093AA028FEF80938C028091AA0288
:104FA000843008F4F1CE8FEA92E02DE832E0B901C6
:104FB00044E00E941729813009F08EC082E080937E
:104FC000A7021092A9020E94860D83EE91E00E9432
:104FD0006A0D82E061E00E94900D85E092E00E94FF
:104FE0006A0D80E090E0AAEFB3E4898F9A8FAB8FCF
:104FF000BC8F698D7A8D8B8D9C8D20E030E04AEFDF
:1050000054E40E941F02DC01CB018D8B9E8BAF8B81
:10501000B88F6D897E898F89988D20E030E040E8D7
:105020005FE30E94250488232CF481E090E09C8BB0
:105030008B8B3FC06D897E898F89988D20E03FEFF3
:105040004FE757E40E94C50318164CF5698D7A8D19
:105050008B8D9C8D20E030E040E251E40E941F02E5
:10506000DC01CB01BC01CD010E944900DC01CB0178
:105070009C8B8B8B0FC088EC90E09A8B898B8989F5
:105080009A890197F1F79A8B898B8B899C89019773
:105090009C8B8B8B8B899C89009769F714C06D89D9
:1050A0007E898F89988D0E944900DC01CB019C8B01
:1050B0008B8B8B899C89988B8F878F85988901979B
:1050C000F1F7988B8F8783E461E00E94CD0D0E94F9
:1050D000A52B0E94860D9AC08091A9028F5F8093B4
:1050E000A9021092A7020E94860D8CE192E00E9414
:1050F0006A0D82E061E00E94900D89EF91E00E94CC
:105100006A0D9091A90283E3891B0E94550D80E0EE
:1051100090E0AAE7B4E48B879C87AD87BE876B8558
:105120007C858D859E8520E030E04AEF54E40E9426
:105130001F02DC01CB018F839887A987BA876F8113
:10514000788589859A8520E030E040E85FE30E9419
:10515000250488232CF481E090E09E838D833FC05A
:105160006F81788589859A8520E03FEF4FE757E486
:105170000E94C50318164CF56B857C858D859E8530
:1051800020E030E040E251E40E941F02DC01CB014C
:10519000BC01CD010E944900DC01CB019E838D83BF
:1051A0000FC088EC90E09C838B838B819C8101975E
:1051B000F1F79C838B838D819E8101979E838D83E4
:1051C0008D819E81009769F714C06F8178858985EC
:1051D0009A850E944900DC01CB019E838D838D81DD
:1051E0009E819A83898389819A810197F1F79A83B5
:1051F00089830E94860D8091A902833038F081E076
:105200008093A50281E08093A80205C08091A70247
:10521000823009F01CCDCA5BDF4F0FB6F894DEBFB9
:105220000FBECDBFCF91DF911F910F910895DF93F6
:10523000CF93CDB7DEB727970FB6F894DEBF0FBE7A
:10524000CDBF9C838B837E836D834F831A8281E0E5
:10525000898319C08A81282F30E08B819C81FC01D1
:10526000E20FF31F40818A81282F30E08D819E81DB
:10527000FC01E20FF31F8081481711F0198207C06B
:105280008A818F5F8A839A818F81981718F3898129
:1052900027960FB6F894DEBF0FBECDBFCF91DF913A
:1052A0000895DF93CF93CDB7DEB7E3970FB6F894A9
:1052B000DEBF0FBECDBF88AB69AB1FA61EA61DA665
:1052C0008FEF8CA78FEF8BA70E94860D88A9282FC0
:1052D00030E03BAB2AAB8AA99BA985309105B1F19F
:1052E0002AA93BA9263031055CF48AA99BA9833001
:1052F0009105B1F02AA93BA924303105E1F051C054
:105300008AA99BA987309105B9F12AA93BA9273021
:1053100031053CF18AA99BA989309105C1F141C0B1
:1053200081E18FA781E28EA781E38DA787E292E0DA
:105330000E946A0D36C082E18FA782E28EA782E3C7
:105340008DA780E392E00E946A0D2BC083E18FA7B6
:1053500083E28EA783E38DA789E392E00E946A0D22
:1053600020C084E18FA784E28EA784E38DA782E426
:1053700092E00E946A0D15C085E18FA785E28EA795
:1053800085E38DA78BE492E00E946A0D0AC086E156
:105390008FA786E28EA786E38DA781E592E00E9423
:1053A0006A0D8FA50E94390E80E090E0A8ECB2E46F
:1053B0008FA398A7A9A7BAA76FA178A589A59AA531
:1053C00020E030E04AEF54E40E941F02DC01CB01F0
:1053D0008BA39CA3ADA3BEA36BA17CA18DA19EA119
:1053E00020E030E040E85FE30E94250488232CF4AD
:1053F00081E090E09AA389A33FC06BA17CA18DA11D
:105400009EA120E03FEF4FE757E40E94C503181626
:105410004CF56FA178A589A59AA520E030E040E27F
:1054200051E40E941F02DC01CB01BC01CD010E94AE
:105430004900DC01CB019AA389A30FC088EC90E05E
:1054400098A38F8F8F8D98A10197F1F798A38F8FD5
:1054500089A19AA101979AA389A389A19AA10097EA
:1054600069F714C06BA17CA18DA19EA10E94490087
:10547000DC01CB019AA389A389A19AA19E8F8D8F6C
:105480008D8D9E8D0197F1F79E8F8D8F8FEF0E94EE
:10549000390E8CA78CA5813029F48EE592E00E940C
:1054A0006A0D04C081E692E00E946A0D82E061E02C
:1054B0000E94900D85E692E00E946A0D89A90E94E3
:1054C000762B8BA780E090E0A8ECB2E4898F9A8FCE
:1054D000AB8FBC8F698D7A8D8B8D9C8D20E030E0F9
:1054E0004AEF54E40E941F02DC01CB018D8B9E8B9E
:1054F000AF8BB88F6D897E898F89988D20E030E0E1
:1055000040E85FE30E94250488232CF481E090E0CA
:105510009C8B8B8B3FC06D897E898F89988D20E015
:105520003FEF4FE757E40E94C50318164CF5698D0D
:105530007A8D8B8D9C8D20E030E040E251E40E941A
:105540001F02DC01CB01BC01CD010E944900DC013E
:10555000CB019C8B8B8B0FC088EC90E09A8B898B56
:1055600089899A890197F1F79A8B898B8B899C8914
:1055700001979C8B8B8B8B899C89009769F714C052
:105580006D897E898F89988D0E944900DC01CB014D
:105590009C8B8B8B8B899C89988B8F878F85988927
:1055A0000197F1F7988B8F878BA5813321F48EA516
:1055B0000E94390E87C08BA5823321F48DA50E94ED
:1055C000390E80C08BA58F3F09F47CC08BA580333A
:1055D00009F478C00E94860D86E792E00E946A0D69
:1055E00080E090E0AAEFB3E48B879C87AD87BE870D
:1055F0006B857C858D859E8520E030E04AEF54E404
:105600000E941F02DC01CB018F839887A987BA878C
:105610006F81788589859A8520E030E040E85FE3F6
:105620000E94250488232CF481E090E09E838D83E2
:105630003FC06F81788589859A8520E03FEF4FE7ED
:1056400057E40E94C50318164CF56B857C858D8543
:105650009E8520E030E040E251E40E941F02DC0120
:10566000CB01BC01CD010E944900DC01CB019E832E
:105670008D830FC088EC90E09C838B838B819C8111
:105680000197F1F79C838B838D819E8101979E8387
:105690008D838D819E81009769F714C06F81788515
:1056A00089859A850E944900DC01CB019E838D8308
:1056B0008D819E819A83898389819A810197F1F7EF
:1056C0009A8389838BA5803318F08BA5833328F0C8
:1056D0008091A402882309F4F7CDE3960FB6F894DD
:1056E000DEBF0FBECDBFCF91DF910895DF93CF9383
:1056F00000D0CDB7DEB78A838FEF89831DC080913C
:10570000A2029091A3022BE0883B920718F08A81B5
:10571000813059F08091A2029091A30227E0803D50
:10572000920738F08A81823021F481E08093A402CC
:1057300006C00E94980E898389818F3F01F3898179
:105740000F900F90CF91DF910895DF93CF93CDB756
:10575000DEB7ECE5F0E08EE48083A3E5B0E0E3E5BE
:10576000F0E0808188608C93A3E5B0E0E3E5F0E0B1
:1057700080818F7B8C93A3E5B0E0E3E5F0E080814E
:1057800081608C93A3E5B0E0E3E5F0E080818D7F5C
:105790008C93A3E5B0E0E3E5F0E0808184608C9336
:1057A0007894A9E5B0E0E9E5F0E0808182608C932F
:1057B000CF91DF910895DF93CF93CDB7DEB7A3E507
:1057C000B0E0E3E5F0E080818E7F8C93A3E5B0E06C
:1057D000E3E5F0E080818D7F8C93A3E5B0E0E3E525
:1057E000F0E080818B7F8C93CF91DF910895DF93E0
:1057F000CF93CDB7DEB7ECE5F0E080E88083A3E59A
:10580000B0E0E3E5F0E0808180648C93A3E5B0E054
:10581000E3E5F0E0808188608C937894A3E5B0E0C4
:10582000E3E5F0E0808180628C93A9E5B0E0E9E5F2
:10583000F0E0808181608C93A3E5B0E0E3E5F0E0E7
:10584000808181608C93A3E5B0E0E3E5F0E08081A6
:105850008D7F8C93A3E5B0E0E3E5F0E08081846088
:105860008C93CF91DF9108950F931F93DF93CF9384
:1058700000D000D0CDB7DEB769837A838B839C8359
:105880000CE510E069817A818B819C8120E030E019
:1058900048EC52E40E941903DC01CB01BC01CD01AC
:1058A00020E030E040E853E40E941F02DC01CB011D
:1058B000BC01CD010E944900DC01CB01F8018083CD
:1058C0000F900F900F900F90CF91DF911F910F913C
:1058D00008952F923F924F925F926F927F928F9294
:1058E0009F92AF92BF92CF92DF92EF92FF920F936F
:1058F0001F93CF93DF93CDB7DEB7CA1BDB0B0FB679
:10590000F894DEBF0FBECDBF09942A883988488835
:105910005F846E847D848C849B84AA84B984C884CB
:10592000DF80EE80FD800C811B81AA81B981CE0FC2
:10593000D11D0FB6F894DEBF0FBECDBFED010895A7
:04594000F894FFCF09
:1059440053657373696F6E2054696D656F75740068
:105954004C6F67696E20626C6F636B65640077617E
:105964006974203230207365636F6E64730053650D
:105974006C656374206D6F6465203A00303A41644D
:105984006D696E20313A47756573740057726F6E96
:105994006720696E7075742E00313A4C69676874BB
:1059A40020002020323A5061737300333A41697207
:1059B40020436F6E642020343A54560057726F6E41
:1059C4006720696E70757400313A526F6F6D3120C3
:1059D400323A526F6F6D3200333A526F6F6D33202B
:1059E400343A526F6F6D34004368616E676550617D
:1059F400737320303A52657400313A41646D696EB4
:105A04002020323A47756573742000313A53657427
:105A14002074656D70657261747572652000323A28
:105A2400436F6E74726F6C2020303A5245540053A9
:105A340065742074656D702E3A5F5F200054656D47
:105A440070657261747572652053656E7400576574
:105A54006C636F6D6520746F20736D617274006880
:105A64006F6D652073797374656D0053657420419F
:105A7400646D696E20706173730041646D696E209A
:105A8400706173733A005061737320536176656477
:105A940000536574204775657374205061737300F7
:105AA400477565737420506173733A0041646D697E
:105AB4006E206D6F646500456E746572205061736D
:105AC400733A005269676874207061737300577287
:105AD4006F6E672050617373005472696573206C34
